{
  "contractName": "Agreement",
  "abi": [
    {
      "inputs": [],
      "stateMutability": "nonpayable",
      "type": "constructor"
    },
    {
      "anonymous": false,
      "inputs": [
        {
          "indexed": true,
          "internalType": "uint256",
          "name": "id",
          "type": "uint256"
        },
        {
          "indexed": false,
          "internalType": "bytes32",
          "name": "formTemplateId",
          "type": "bytes32"
        },
        {
          "indexed": true,
          "internalType": "address",
          "name": "partySource",
          "type": "address"
        },
        {
          "indexed": true,
          "internalType": "address",
          "name": "partyDestination",
          "type": "address"
        },
        {
          "indexed": false,
          "internalType": "string",
          "name": "agreementStoredReference",
          "type": "string"
        },
        {
          "indexed": false,
          "internalType": "uint256",
          "name": "status",
          "type": "uint256"
        }
      ],
      "name": "AgreementEvents",
      "type": "event"
    },
    {
      "anonymous": false,
      "inputs": [
        {
          "indexed": true,
          "internalType": "address",
          "name": "previousOwner",
          "type": "address"
        },
        {
          "indexed": true,
          "internalType": "address",
          "name": "newOwner",
          "type": "address"
        }
      ],
      "name": "OwnershipTransferred",
      "type": "event"
    },
    {
      "inputs": [
        {
          "internalType": "address",
          "name": "",
          "type": "address"
        },
        {
          "internalType": "bytes32",
          "name": "",
          "type": "bytes32"
        }
      ],
      "name": "agreementForms",
      "outputs": [
        {
          "internalType": "bytes",
          "name": "",
          "type": "bytes"
        }
      ],
      "stateMutability": "view",
      "type": "function",
      "constant": true
    },
    {
      "inputs": [
        {
          "internalType": "uint256",
          "name": "",
          "type": "uint256"
        }
      ],
      "name": "agreements",
      "outputs": [
        {
          "components": [
            {
              "internalType": "address",
              "name": "signatory",
              "type": "address"
            }
          ],
          "internalType": "struct AgreementModels.Party",
          "name": "fromSigner",
          "type": "tuple"
        },
        {
          "components": [
            {
              "internalType": "address",
              "name": "signatory",
              "type": "address"
            }
          ],
          "internalType": "struct AgreementModels.Party",
          "name": "toSigner",
          "type": "tuple"
        },
        {
          "internalType": "bool",
          "name": "escrowed",
          "type": "bool"
        },
        {
          "internalType": "uint256",
          "name": "validUntil",
          "type": "uint256"
        },
        {
          "internalType": "bytes",
          "name": "agreementForm",
          "type": "bytes"
        },
        {
          "internalType": "uint256",
          "name": "status",
          "type": "uint256"
        },
        {
          "components": [
            {
              "internalType": "string",
              "name": "multiaddressReference",
              "type": "string"
            },
            {
              "internalType": "bytes",
              "name": "digest",
              "type": "bytes"
            }
          ],
          "internalType": "struct AgreementModels.Content",
          "name": "file",
          "type": "tuple"
        }
      ],
      "stateMutability": "view",
      "type": "function",
      "constant": true
    },
    {
      "inputs": [],
      "name": "owner",
      "outputs": [
        {
          "internalType": "address",
          "name": "",
          "type": "address"
        }
      ],
      "stateMutability": "view",
      "type": "function",
      "constant": true
    },
    {
      "inputs": [],
      "name": "renounceOwnership",
      "outputs": [],
      "stateMutability": "nonpayable",
      "type": "function"
    },
    {
      "inputs": [
        {
          "internalType": "address",
          "name": "newOwner",
          "type": "address"
        }
      ],
      "name": "transferOwnership",
      "outputs": [],
      "stateMutability": "nonpayable",
      "type": "function"
    },
    {
      "inputs": [
        {
          "internalType": "uint256",
          "name": "validUntil",
          "type": "uint256"
        },
        {
          "internalType": "address",
          "name": "counterparty",
          "type": "address"
        },
        {
          "internalType": "string",
          "name": "multiaddrReference",
          "type": "string"
        },
        {
          "internalType": "bytes32",
          "name": "agreementFormTemplateId",
          "type": "bytes32"
        },
        {
          "internalType": "bytes",
          "name": "agreementForm",
          "type": "bytes"
        },
        {
          "internalType": "bytes",
          "name": "digest",
          "type": "bytes"
        }
      ],
      "name": "partyCreate",
      "outputs": [
        {
          "internalType": "uint256",
          "name": "",
          "type": "uint256"
        }
      ],
      "stateMutability": "nonpayable",
      "type": "function"
    },
    {
      "inputs": [
        {
          "internalType": "uint256",
          "name": "agreementId",
          "type": "uint256"
        },
        {
          "internalType": "uint256",
          "name": "validUntil",
          "type": "uint256"
        },
        {
          "internalType": "string",
          "name": "multiaddrReference",
          "type": "string"
        },
        {
          "internalType": "bytes32",
          "name": "agreementFormTemplateId",
          "type": "bytes32"
        },
        {
          "internalType": "bytes",
          "name": "agreementForm",
          "type": "bytes"
        },
        {
          "internalType": "bytes",
          "name": "digest",
          "type": "bytes"
        }
      ],
      "name": "counterPartiesSign",
      "outputs": [
        {
          "internalType": "uint256",
          "name": "",
          "type": "uint256"
        }
      ],
      "stateMutability": "nonpayable",
      "type": "function"
    },
    {
      "inputs": [
        {
          "internalType": "bytes32",
          "name": "id",
          "type": "bytes32"
        },
        {
          "internalType": "bytes",
          "name": "content",
          "type": "bytes"
        }
      ],
      "name": "setAgreementTemplate",
      "outputs": [
        {
          "internalType": "bool",
          "name": "",
          "type": "bool"
        }
      ],
      "stateMutability": "nonpayable",
      "type": "function"
    },
    {
      "inputs": [
        {
          "internalType": "uint256",
          "name": "agreementId",
          "type": "uint256"
        },
        {
          "internalType": "bool",
          "name": "isCounterparty",
          "type": "bool"
        },
        {
          "internalType": "bytes32",
          "name": "formId",
          "type": "bytes32"
        }
      ],
      "name": "getFormById",
      "outputs": [
        {
          "internalType": "bytes",
          "name": "",
          "type": "bytes"
        }
      ],
      "stateMutability": "nonpayable",
      "type": "function"
    },
    {
      "inputs": [
        {
          "internalType": "uint256",
          "name": "id",
          "type": "uint256"
        }
      ],
      "name": "has",
      "outputs": [
        {
          "internalType": "bool",
          "name": "",
          "type": "bool"
        }
      ],
      "stateMutability": "view",
      "type": "function",
      "constant": true
    },
    {
      "inputs": [
        {
          "internalType": "uint256",
          "name": "id",
          "type": "uint256"
        }
      ],
      "name": "get",
      "outputs": [
        {
          "components": [
            {
              "components": [
                {
                  "internalType": "address",
                  "name": "signatory",
                  "type": "address"
                }
              ],
              "internalType": "struct AgreementModels.Party",
              "name": "fromSigner",
              "type": "tuple"
            },
            {
              "components": [
                {
                  "internalType": "address",
                  "name": "signatory",
                  "type": "address"
                }
              ],
              "internalType": "struct AgreementModels.Party",
              "name": "toSigner",
              "type": "tuple"
            },
            {
              "internalType": "bool",
              "name": "escrowed",
              "type": "bool"
            },
            {
              "internalType": "uint256",
              "name": "validUntil",
              "type": "uint256"
            },
            {
              "internalType": "bytes",
              "name": "agreementForm",
              "type": "bytes"
            },
            {
              "internalType": "uint256",
              "name": "status",
              "type": "uint256"
            },
            {
              "components": [
                {
                  "internalType": "string",
                  "name": "multiaddressReference",
                  "type": "string"
                },
                {
                  "internalType": "bytes",
                  "name": "digest",
                  "type": "bytes"
                }
              ],
              "internalType": "struct AgreementModels.Content",
              "name": "file",
              "type": "tuple"
            }
          ],
          "internalType": "struct AgreementModels.AgreementDocument",
          "name": "",
          "type": "tuple"
        }
      ],
      "stateMutability": "nonpayable",
      "type": "function"
    }
  ],
  "bytecode": "0x608060405234801561001057600080fd5b50600061002161009060201b60201c565b9050806000806101000a8154816001600160a01b0302191690836001600160a01b03160217905550806001600160a01b031660006001600160a01b03167f8be0079c531659141344cd1fd0a4f28419497f9722a3daafe3b4186f6b6457e060405160405180910390a350610098565b600033905090565b611b68806100a76000396000f3fe608060405234801561001057600080fd5b50600436106100a95760003560e01c8063715018a611610071578063715018a61461019e5780638da5cb5b146101a85780639507d39a146101c6578063bd14de96146101f6578063cccf7a8e1461022c578063f2fde38b1461025c576100a9565b8063139b9765146100ae57806314d1cdb3146100de57806315b95b541461010e5780633514a2011461013e5780634b0f650f1461016e575b600080fd5b6100c860048036038101906100c3919061178d565b610278565b6040516100d59190611949565b60405180910390f35b6100f860048036038101906100f39190611659565b6103ac565b6040516101059190611949565b60405180910390f35b61012860048036038101906101239190611685565b610469565b604051610135919061190d565b60405180910390f35b610158600480360381019061015391906116e5565b61049d565b6040516101659190611b0f565b60405180910390f35b610188600480360381019061018391906117c9565b6104c9565b6040516101959190611b0f565b60405180910390f35b6101a66107d4565b005b6101b06108a7565b6040516101bd91906118f4565b60405180910390f35b6101e060048036038101906101db91906116ca565b6108c3565b6040516101ed9190611a23565b60405180910390f35b610210600480360381019061020b91906116ca565b610bdf565b6040516102239796959493929190611aad565b60405180910390f35b610246600480360381019061024191906116ca565b610e86565b604051610253919061190d565b60405180910390f35b61027660048036038101906102719190611636565b610ea9565b005b6060600115158315151480156102cb57506002600085815260200190815260200160002060010160000160009054906101000a90046001600160a01b03166001600160a01b0316336001600160a01b0316145b6102d457600080fd5b60036000336001600160a01b03166001600160a01b0316815260200190815260200160002060008381526020019081526020016000208054600181600116156101000203166002900480601f01602080910402602001604051908101604052809291908181526020018280546001816001161561010002031660029004801561039e5780601f106103735761010080835404028352916020019161039e565b820191906000526020600020905b81548152906001019060200180831161038157829003601f168201915b505050505090509392505050565b6003602052816000526040600020602052806000526040600020600091509150508054600181600116156101000203166002900480601f0160208091040260200160405190810160405280929190818152602001828054600181600116156101000203166002900480156104615780601f1061043657610100808354040283529160200191610461565b820191906000526020600020905b81548152906001019060200180831161044457829003601f168201915b505050505081565b6000816004600085815260200190815260200160002090805190602001906104929291906113ea565b506001905092915050565b60006104bd338760008a898989600060088111156104b757fe5b8a610fb7565b90509695505050505050565b60006104d361146a565b600260008981526020019081526020016000206040518060e0016040529081600082016040518060200160405290816000820160009054906101000a90046001600160a01b03166001600160a01b03166001600160a01b0316815250508152602001600182016040518060200160405290816000820160009054906101000a90046001600160a01b03166001600160a01b03166001600160a01b03168152505081526020016002820160009054906101000a900460ff1615151515815260200160038201548152602001600482018054600181600116156101000203166002900480601f0160208091040260200160405190810160405280929190818152602001828054600181600116156101000203166002900480156106355780601f1061060a57610100808354040283529160200191610635565b820191906000526020600020905b81548152906001019060200180831161061857829003601f168201915b505050505081526020016005820154815260200160068201604051806040016040529081600082018054600181600116156101000203166002900480601f0160208091040260200160405190810160405280929190818152602001828054600181600116156101000203166002900480156106f15780601f106106c6576101008083540402835291602001916106f1565b820191906000526020600020905b8154815290600101906020018083116106d457829003601f168201915b50505050508152602001600182018054600181600116156101000203166002900480601f0160208091040260200160405190810160405280929190818152602001828054600181600116156101000203166002900480156107935780601f1061076857610100808354040283529160200191610793565b820191906000526020600020905b81548152906001019060200180831161077657829003601f168201915b5050505050815250508152505090506107c7816000015160000151338a8a8a8a8a600160088111156107c157fe5b8b610fb7565b9150509695505050505050565b6107dc6113e2565b6001600160a01b03166000809054906101000a90046001600160a01b03166001600160a01b0316146108295760405162461bcd60e51b8152600401610820906119e6565b60405180910390fd5b60006001600160a01b03166000809054906101000a90046001600160a01b03166001600160a01b03167f8be0079c531659141344cd1fd0a4f28419497f9722a3daafe3b4186f6b6457e060405160405180910390a360008060006101000a8154816001600160a01b0302191690836001600160a01b03160217905550565b60008060009054906101000a90046001600160a01b0316905090565b6108cb61146a565b60006002600084815260200190815260200160002060030154141561090b5760405162461bcd60e51b8152600401610902906119b1565b60405180910390fd5b600260008381526020019081526020016000206040518060e0016040529081600082016040518060200160405290816000820160009054906101000a90046001600160a01b03166001600160a01b03166001600160a01b0316815250508152602001600182016040518060200160405290816000820160009054906101000a90046001600160a01b03166001600160a01b03166001600160a01b03168152505081526020016002820160009054906101000a900460ff1615151515815260200160038201548152602001600482018054600181600116156101000203166002900480601f016020809104026020016040519081016040528092919081815260200182805460018160011615610100020316600290048015610a6d5780601f10610a4257610100808354040283529160200191610a6d565b820191906000526020600020905b815481529060010190602001808311610a5057829003601f168201915b505050505081526020016005820154815260200160068201604051806040016040529081600082018054600181600116156101000203166002900480601f016020809104026020016040519081016040528092919081815260200182805460018160011615610100020316600290048015610b295780601f10610afe57610100808354040283529160200191610b29565b820191906000526020600020905b815481529060010190602001808311610b0c57829003601f168201915b50505050508152602001600182018054600181600116156101000203166002900480601f016020809104026020016040519081016040528092919081815260200182805460018160011615610100020316600290048015610bcb5780601f10610ba057610100808354040283529160200191610bcb565b820191906000526020600020905b815481529060010190602001808311610bae57829003601f168201915b505050505081525050815250509050919050565b6002602052806000526040600020600091509050806000016040518060200160405290816000820160009054906101000a90046001600160a01b03166001600160a01b03166001600160a01b03168152505090806001016040518060200160405290816000820160009054906101000a90046001600160a01b03166001600160a01b03166001600160a01b031681525050908060020160009054906101000a900460ff1690806003015490806004018054600181600116156101000203166002900480601f016020809104026020016040519081016040528092919081815260200182805460018160011615610100020316600290048015610d225780601f10610cf757610100808354040283529160200191610d22565b820191906000526020600020905b815481529060010190602001808311610d0557829003601f168201915b50505050509080600501549080600601604051806040016040529081600082018054600181600116156101000203166002900480601f016020809104026020016040519081016040528092919081815260200182805460018160011615610100020316600290048015610dd65780601f10610dab57610100808354040283529160200191610dd6565b820191906000526020600020905b815481529060010190602001808311610db957829003601f168201915b50505050508152602001600182018054600181600116156101000203166002900480601f016020809104026020016040519081016040528092919081815260200182805460018160011615610100020316600290048015610e785780601f10610e4d57610100808354040283529160200191610e78565b820191906000526020600020905b815481529060010190602001808311610e5b57829003601f168201915b505050505081525050905087565b600080600260008481526020019081526020016000206003015414159050919050565b610eb16113e2565b6001600160a01b03166000809054906101000a90046001600160a01b03166001600160a01b031614610efe5760405162461bcd60e51b8152600401610ef5906119e6565b60405180910390fd5b60006001600160a01b0316816001600160a01b03161415610f3a5760405162461bcd60e51b8152600401610f3190611964565b60405180910390fd5b806001600160a01b03166000809054906101000a90046001600160a01b03166001600160a01b03167f8be0079c531659141344cd1fd0a4f28419497f9722a3daafe3b4186f6b6457e060405160405180910390a3806000806101000a8154816001600160a01b0302191690836001600160a01b0316021790555050565b6000806008811115610fc557fe5b8314156111d0576001600081548092919060010191905055506040518060e0016040528060405180602001604052808d6001600160a01b0316815250815260200160405180602001604052808c6001600160a01b0316815250815260200160001515815260200188815260200185815260200184815260200160405180604001604052808981526020018581525081525060026000600154815260200190815260200160002060008201518160000160008201518160000160006101000a8154816001600160a01b0302191690836001600160a01b03160217905550505060208201518160010160008201518160000160006101000a8154816001600160a01b0302191690836001600160a01b03160217905550505060408201518160020160006101000a81548160ff0219169083151502179055506060820151816003015560808201518160040190805190602001906111219291906113ea565b5060a0820151816005015560c08201518160060160008201518160000190805190602001906111519291906114bb565b50602082015181600101908051906020019061116e9291906113ea565b505050905050886001600160a01b03168a6001600160a01b03166001547fc06d8b811960d44812b7b2c6eced2659c361e93a7b5efbada49e98e14030fee6888a886040516111be93929190611920565b60405180910390a460015490506113d5565b600160088111156111dd57fe5b8314156113d0576040518060e0016040528060405180602001604052808d6001600160a01b0316815250815260200160405180602001604052808c6001600160a01b03168152508152602001600015158152602001888152602001858152602001848152602001604051806040016040528089815260200185815250815250600260008a815260200190815260200160002060008201518160000160008201518160000160006101000a8154816001600160a01b0302191690836001600160a01b03160217905550505060208201518160010160008201518160000160006101000a8154816001600160a01b0302191690836001600160a01b03160217905550505060408201518160020160006101000a81548160ff0219169083151502179055506060820151816003015560808201518160040190805190602001906113259291906113ea565b5060a0820151816005015560c08201518160060160008201518160000190805190602001906113559291906114bb565b5060208201518160010190805190602001906113729291906113ea565b505050905050886001600160a01b03168a6001600160a01b0316897fc06d8b811960d44812b7b2c6eced2659c361e93a7b5efbada49e98e14030fee6888a886040516113c093929190611920565b60405180910390a48790506113d5565b600090505b9998505050505050505050565b600033905090565b828054600181600116156101000203166002900490600052602060002090601f016020900481019282601f1061142b57805160ff1916838001178555611459565b82800160010185558215611459579182015b8281111561145857825182559160200191906001019061143d565b5b509050611466919061153b565b5090565b6040518060e0016040528061147d611560565b815260200161148a611560565b81526020016000151581526020016000815260200160608152602001600081526020016114b561157c565b81525090565b828054600181600116156101000203166002900490600052602060002090601f016020900481019282601f106114fc57805160ff191683800117855561152a565b8280016001018555821561152a579182015b8281111561152957825182559160200191906001019061150e565b5b509050611537919061153b565b5090565b61155d91905b80821115611559576000816000905550600101611541565b5090565b90565b604051806020016040528060006001600160a01b031681525090565b604051806040016040528060608152602001606081525090565b60008135905060018060a01b03811681146115b057600080fd5b92915050565b600082601f8301126115c6578081fd5b813567ffffffffffffffff808211156115dd578283fd5b6040516020601f19601f85011682010181811083821117156115fd578485fd5b806040525080935082815285602084870101111561161a57600080fd5b8260208601602083013760006020848301015250505092915050565b600060208284031215611647578081fd5b6116518383611596565b905092915050565b6000806040838503121561166b578081fd5b6116758484611596565b9150602083013590509250929050565b60008060408385031215611697578182fd5b82359150602083013567ffffffffffffffff8111156116b4578182fd5b6116c0858286016115b6565b9150509250929050565b6000602082840312156116db578081fd5b8135905092915050565b60008060008060008060c087890312156116fd578182fd5b8635955061170e8860208901611596565b9450604087013567ffffffffffffffff8082111561172a578384fd5b6117368a838b016115b6565b9550606089013594506080890135915080821115611752578384fd5b61175e8a838b016115b6565b935060a0890135915080821115611773578283fd5b5061178089828a016115b6565b9150509295509295509295565b6000806000606084860312156117a1578283fd5b83359250602084013580151581146117b7578283fd5b80925050604084013590509250925092565b60008060008060008060c087890312156117e1578182fd5b8635955060208701359450604087013567ffffffffffffffff80821115611806578384fd5b6118128a838b016115b6565b955060608901359450608089013591508082111561182e578384fd5b61183a8a838b016115b6565b935060a089013591508082111561184f578283fd5b5061185c89828a016115b6565b9150509295509295509295565b60008151808452815b8181101561189457602080828601015181838801015250602081019050611872565b818111156118a55782602083870101525b506020601f19601f83011685010191505092915050565b60008151604084526118d16040850182611869565b6020840151915084810360208601526118ea8183611869565b9250505092915050565b600060208201905060018060a01b038316825292915050565b6000602082019050821515825292915050565b6000848252606060208301526119396060830185611869565b9050826040830152949350505050565b60006020825261195c6020830184611869565b905092915050565b600060208252602660208301527f4f776e61626c653a206e6577206f776e657220697320746865207a65726f206160408301526564647265737360d01b6060830152608082019050919050565b6000602082526014602083015273125b9d985b1a59081859dc99595b595b9d081a5960621b6040830152606082019050919050565b6000602082526020808301527f4f776e61626c653a2063616c6c6572206973206e6f7420746865206f776e65726040830152606082019050919050565b600060208252611a34835151611b20565b6020830152611a47602084015151611b20565b604083015260408301511515606083015260608301516080830152608083015160e060a0840152611a7c610100840182611869565b60a085015160c085015260c08501519150601f198482030160e0850152611aa381836118bc565b9250505092915050565b600060018060a01b03808a5116835280895116602084015250861515604083015285606083015260e06080830152611ae860e0830186611869565b8460a084015282810360c0840152611b0081856118bc565b91505098975050505050505050565b600060208201905082825292915050565b600060018060a01b038216905091905056fea264697066735822122086c9c8d74a60b4dfb66b06dba6000504963128b0f24b0c941154c9d3d57593cb64736f6c634300060a0033",
  "immutableReferences": {},
  "source": "pragma solidity ^0.6.10;\npragma experimental ABIEncoderV2;\n\nimport \"@openzeppelin/contracts/access/Ownable.sol\";\nimport \"./AgreementModels.sol\";\n\n//\n// @dev Contains agreements templates or documents created by user\n//\n// Create AgreementUtils\ncontract Agreement is Ownable, AgreementModels {\n    enum AgreementStatus {\n        PARTY_INIT,\n        COUNTERPARTY_SIGNED,\n        PUBLISHED,\n        DISPUTE_INIT,\n        DISPUTE_ACCEPTED,\n        DISPUTE_REJECTED,\n        VERDICT_PARTY_FOR,\n        VERDICT_PARTY_AGAINST,\n        ARBRITRATION\n    }\n\n    event AgreementEvents(\n        uint256 indexed id,\n        bytes32 formTemplateId,\n        address indexed partySource,\n        address indexed partyDestination,\n        string agreementStoredReference,\n        uint status\n    );\n\n    uint256 private count;\n    // Agreement documents, which has references to decentralized storage and\n    // onchain metadata\n    mapping(uint256 => AgreementDocument) public agreements;\n    // user - plantilla - metadata\n    mapping(address => mapping(bytes32 => bytes)) public agreementForms;\n\n    // Agreement templates - preloaded from migration\n    mapping(bytes32 => bytes) agreementTemplates;\n\n    constructor() public {}\n\n    function partyCreate(\n        uint256 validUntil,\n        address counterparty,\n        string memory multiaddrReference,\n        bytes32 agreementFormTemplateId,\n        bytes memory agreementForm,\n        bytes memory digest\n    )\n        public\n        returns (\n            uint256\n        )\n    {\n        return execute(\n            msg.sender,\n            counterparty,\n            uint256(0),\n            validUntil,\n            multiaddrReference,\n            agreementFormTemplateId,\n            agreementForm,\n            uint(AgreementStatus.PARTY_INIT),\n            digest\n        );\n    }\n\n    function counterPartiesSign(\n        uint agreementId,\n        uint256 validUntil,\n        string memory multiaddrReference,\n        bytes32 agreementFormTemplateId,\n        bytes memory agreementForm,\n        bytes memory digest\n    )\n        public\n        returns (\n            uint256\n        )\n    {\n        AgreementDocument memory doc = agreements[agreementId];\n        return execute(\n            doc.fromSigner.signatory,\n            msg.sender,\n            agreementId,\n            validUntil,\n            multiaddrReference,\n            agreementFormTemplateId,\n            agreementForm,\n            uint(AgreementStatus.COUNTERPARTY_SIGNED),\n            digest\n        );\n    }\n\n    // Creates an agreement document\n    // Contains a reference for content stored off chain\n    function execute(\n        address party,\n        address counterparty,\n        uint256 agreementId,\n        uint256 validUntil,\n        string memory multiaddrReference,\n        bytes32 agreementFormTemplateId,\n        bytes memory agreementForm,\n        uint status,\n        bytes memory digest\n    )\n        internal\n        returns (\n            uint256\n        )\n    {\n        if (status == uint(AgreementStatus.PARTY_INIT)) {\n            count++;\n            agreements[count] = AgreementDocument({\n                fromSigner: Party({ signatory: party }),\n                toSigner: Party({ signatory: counterparty }),\n                escrowed: false,\n                validUntil: validUntil,\n                status: status,\n                agreementForm: agreementForm,\n                file: Content({\n                    multiaddressReference: multiaddrReference,\n                    digest: digest\n                })\n            });\n            // Emit Event when Create Agreements\n            emit AgreementEvents(\n                count,\n                agreementFormTemplateId,\n                party,\n                counterparty,\n                multiaddrReference,\n                status\n            );\n            return count;\n        } else if (status == uint(AgreementStatus.COUNTERPARTY_SIGNED)) {\n            agreements[agreementId] = AgreementDocument({\n                fromSigner: Party({ signatory: party }),\n                toSigner: Party({ signatory: counterparty }),\n                escrowed: false,\n                validUntil: validUntil,\n                status: status,\n                agreementForm: agreementForm,\n                file: Content({\n                    multiaddressReference: multiaddrReference,\n                    digest: digest\n                })\n            });\n            // Emit Event when Counterparty Sign the Agreementes\n            emit AgreementEvents(\n                agreementId,\n                agreementFormTemplateId,\n                party,\n                counterparty,\n                multiaddrReference,\n                status\n            );\n            return agreementId;\n        } else {\n            return uint256(0);\n        }\n    }\n\n    function setAgreementTemplate(bytes32 id, bytes memory content)\n        public\n        returns (bool)\n    {\n        // TODO: add requires\n        agreementTemplates[id] = content;\n        return true;\n    }\n\n\n    function getFormById(uint agreementId, bool isCounterparty, bytes32 formId) public returns (bytes memory) {\n        require(isCounterparty == true &&\n         msg.sender == agreements[agreementId].toSigner.signatory);\n\n        return agreementForms[msg.sender][formId];\n    }\n\n    function has(uint256 id) public view returns (bool) {\n        return agreements[id].validUntil != 0;\n    }\n\n    function get(uint256 id) public returns (AgreementDocument memory) {\n        require(agreements[id].validUntil != 0, \"Invalid agreement id\");\n        return agreements[id];\n    }\n}\n",
  "sourcePath": "/home/esfera-ubuntu/Documents/projects/paid-contracts/contracts/Agreement.sol",
  "compiler": {
    "name": "solc",
    "version": "0.6.10+commit.00c0fcaf.Emscripten.clang"
  },
  "schemaVersion": "3.3.2",
  "updatedAt": "2020-12-13T01:34:45.918Z",
  "networkType": "ethereum",
  "devdoc": {
    "methods": {
      "owner()": {
        "details": "Returns the address of the current owner."
      },
      "renounceOwnership()": {
        "details": "Leaves the contract without owner. It will not be possible to call `onlyOwner` functions anymore. Can only be called by the current owner. NOTE: Renouncing ownership will leave the contract without an owner, thereby removing any functionality that is only available to the owner."
      },
      "transferOwnership(address)": {
        "details": "Transfers ownership of the contract to a new account (`newOwner`). Can only be called by the current owner."
      }
    }
  },
  "userdoc": {
    "methods": {}
  }
}