{
  "contractName": "ERC20PresetMinterPauser",
  "abi": [
    {
      "inputs": [
        {
          "internalType": "string",
          "name": "name",
          "type": "string"
        },
        {
          "internalType": "string",
          "name": "symbol",
          "type": "string"
        }
      ],
      "stateMutability": "nonpayable",
      "type": "constructor"
    },
    {
      "anonymous": false,
      "inputs": [
        {
          "indexed": true,
          "internalType": "address",
          "name": "owner",
          "type": "address"
        },
        {
          "indexed": true,
          "internalType": "address",
          "name": "spender",
          "type": "address"
        },
        {
          "indexed": false,
          "internalType": "uint256",
          "name": "value",
          "type": "uint256"
        }
      ],
      "name": "Approval",
      "type": "event"
    },
    {
      "anonymous": false,
      "inputs": [
        {
          "indexed": false,
          "internalType": "address",
          "name": "account",
          "type": "address"
        }
      ],
      "name": "Paused",
      "type": "event"
    },
    {
      "anonymous": false,
      "inputs": [
        {
          "indexed": true,
          "internalType": "bytes32",
          "name": "role",
          "type": "bytes32"
        },
        {
          "indexed": true,
          "internalType": "bytes32",
          "name": "previousAdminRole",
          "type": "bytes32"
        },
        {
          "indexed": true,
          "internalType": "bytes32",
          "name": "newAdminRole",
          "type": "bytes32"
        }
      ],
      "name": "RoleAdminChanged",
      "type": "event"
    },
    {
      "anonymous": false,
      "inputs": [
        {
          "indexed": true,
          "internalType": "bytes32",
          "name": "role",
          "type": "bytes32"
        },
        {
          "indexed": true,
          "internalType": "address",
          "name": "account",
          "type": "address"
        },
        {
          "indexed": true,
          "internalType": "address",
          "name": "sender",
          "type": "address"
        }
      ],
      "name": "RoleGranted",
      "type": "event"
    },
    {
      "anonymous": false,
      "inputs": [
        {
          "indexed": true,
          "internalType": "bytes32",
          "name": "role",
          "type": "bytes32"
        },
        {
          "indexed": true,
          "internalType": "address",
          "name": "account",
          "type": "address"
        },
        {
          "indexed": true,
          "internalType": "address",
          "name": "sender",
          "type": "address"
        }
      ],
      "name": "RoleRevoked",
      "type": "event"
    },
    {
      "anonymous": false,
      "inputs": [
        {
          "indexed": true,
          "internalType": "address",
          "name": "from",
          "type": "address"
        },
        {
          "indexed": true,
          "internalType": "address",
          "name": "to",
          "type": "address"
        },
        {
          "indexed": false,
          "internalType": "uint256",
          "name": "value",
          "type": "uint256"
        }
      ],
      "name": "Transfer",
      "type": "event"
    },
    {
      "anonymous": false,
      "inputs": [
        {
          "indexed": false,
          "internalType": "address",
          "name": "account",
          "type": "address"
        }
      ],
      "name": "Unpaused",
      "type": "event"
    },
    {
      "inputs": [],
      "name": "DEFAULT_ADMIN_ROLE",
      "outputs": [
        {
          "internalType": "bytes32",
          "name": "",
          "type": "bytes32"
        }
      ],
      "stateMutability": "view",
      "type": "function"
    },
    {
      "inputs": [],
      "name": "MINTER_ROLE",
      "outputs": [
        {
          "internalType": "bytes32",
          "name": "",
          "type": "bytes32"
        }
      ],
      "stateMutability": "view",
      "type": "function"
    },
    {
      "inputs": [],
      "name": "PAUSER_ROLE",
      "outputs": [
        {
          "internalType": "bytes32",
          "name": "",
          "type": "bytes32"
        }
      ],
      "stateMutability": "view",
      "type": "function"
    },
    {
      "inputs": [
        {
          "internalType": "address",
          "name": "owner",
          "type": "address"
        },
        {
          "internalType": "address",
          "name": "spender",
          "type": "address"
        }
      ],
      "name": "allowance",
      "outputs": [
        {
          "internalType": "uint256",
          "name": "",
          "type": "uint256"
        }
      ],
      "stateMutability": "view",
      "type": "function"
    },
    {
      "inputs": [
        {
          "internalType": "address",
          "name": "spender",
          "type": "address"
        },
        {
          "internalType": "uint256",
          "name": "amount",
          "type": "uint256"
        }
      ],
      "name": "approve",
      "outputs": [
        {
          "internalType": "bool",
          "name": "",
          "type": "bool"
        }
      ],
      "stateMutability": "nonpayable",
      "type": "function"
    },
    {
      "inputs": [
        {
          "internalType": "address",
          "name": "account",
          "type": "address"
        }
      ],
      "name": "balanceOf",
      "outputs": [
        {
          "internalType": "uint256",
          "name": "",
          "type": "uint256"
        }
      ],
      "stateMutability": "view",
      "type": "function"
    },
    {
      "inputs": [
        {
          "internalType": "uint256",
          "name": "amount",
          "type": "uint256"
        }
      ],
      "name": "burn",
      "outputs": [],
      "stateMutability": "nonpayable",
      "type": "function"
    },
    {
      "inputs": [
        {
          "internalType": "address",
          "name": "account",
          "type": "address"
        },
        {
          "internalType": "uint256",
          "name": "amount",
          "type": "uint256"
        }
      ],
      "name": "burnFrom",
      "outputs": [],
      "stateMutability": "nonpayable",
      "type": "function"
    },
    {
      "inputs": [],
      "name": "decimals",
      "outputs": [
        {
          "internalType": "uint8",
          "name": "",
          "type": "uint8"
        }
      ],
      "stateMutability": "view",
      "type": "function"
    },
    {
      "inputs": [
        {
          "internalType": "address",
          "name": "spender",
          "type": "address"
        },
        {
          "internalType": "uint256",
          "name": "subtractedValue",
          "type": "uint256"
        }
      ],
      "name": "decreaseAllowance",
      "outputs": [
        {
          "internalType": "bool",
          "name": "",
          "type": "bool"
        }
      ],
      "stateMutability": "nonpayable",
      "type": "function"
    },
    {
      "inputs": [
        {
          "internalType": "bytes32",
          "name": "role",
          "type": "bytes32"
        }
      ],
      "name": "getRoleAdmin",
      "outputs": [
        {
          "internalType": "bytes32",
          "name": "",
          "type": "bytes32"
        }
      ],
      "stateMutability": "view",
      "type": "function"
    },
    {
      "inputs": [
        {
          "internalType": "bytes32",
          "name": "role",
          "type": "bytes32"
        },
        {
          "internalType": "uint256",
          "name": "index",
          "type": "uint256"
        }
      ],
      "name": "getRoleMember",
      "outputs": [
        {
          "internalType": "address",
          "name": "",
          "type": "address"
        }
      ],
      "stateMutability": "view",
      "type": "function"
    },
    {
      "inputs": [
        {
          "internalType": "bytes32",
          "name": "role",
          "type": "bytes32"
        }
      ],
      "name": "getRoleMemberCount",
      "outputs": [
        {
          "internalType": "uint256",
          "name": "",
          "type": "uint256"
        }
      ],
      "stateMutability": "view",
      "type": "function"
    },
    {
      "inputs": [
        {
          "internalType": "bytes32",
          "name": "role",
          "type": "bytes32"
        },
        {
          "internalType": "address",
          "name": "account",
          "type": "address"
        }
      ],
      "name": "grantRole",
      "outputs": [],
      "stateMutability": "nonpayable",
      "type": "function"
    },
    {
      "inputs": [
        {
          "internalType": "bytes32",
          "name": "role",
          "type": "bytes32"
        },
        {
          "internalType": "address",
          "name": "account",
          "type": "address"
        }
      ],
      "name": "hasRole",
      "outputs": [
        {
          "internalType": "bool",
          "name": "",
          "type": "bool"
        }
      ],
      "stateMutability": "view",
      "type": "function"
    },
    {
      "inputs": [
        {
          "internalType": "address",
          "name": "spender",
          "type": "address"
        },
        {
          "internalType": "uint256",
          "name": "addedValue",
          "type": "uint256"
        }
      ],
      "name": "increaseAllowance",
      "outputs": [
        {
          "internalType": "bool",
          "name": "",
          "type": "bool"
        }
      ],
      "stateMutability": "nonpayable",
      "type": "function"
    },
    {
      "inputs": [],
      "name": "name",
      "outputs": [
        {
          "internalType": "string",
          "name": "",
          "type": "string"
        }
      ],
      "stateMutability": "view",
      "type": "function"
    },
    {
      "inputs": [],
      "name": "paused",
      "outputs": [
        {
          "internalType": "bool",
          "name": "",
          "type": "bool"
        }
      ],
      "stateMutability": "view",
      "type": "function"
    },
    {
      "inputs": [
        {
          "internalType": "bytes32",
          "name": "role",
          "type": "bytes32"
        },
        {
          "internalType": "address",
          "name": "account",
          "type": "address"
        }
      ],
      "name": "renounceRole",
      "outputs": [],
      "stateMutability": "nonpayable",
      "type": "function"
    },
    {
      "inputs": [
        {
          "internalType": "bytes32",
          "name": "role",
          "type": "bytes32"
        },
        {
          "internalType": "address",
          "name": "account",
          "type": "address"
        }
      ],
      "name": "revokeRole",
      "outputs": [],
      "stateMutability": "nonpayable",
      "type": "function"
    },
    {
      "inputs": [],
      "name": "symbol",
      "outputs": [
        {
          "internalType": "string",
          "name": "",
          "type": "string"
        }
      ],
      "stateMutability": "view",
      "type": "function"
    },
    {
      "inputs": [],
      "name": "totalSupply",
      "outputs": [
        {
          "internalType": "uint256",
          "name": "",
          "type": "uint256"
        }
      ],
      "stateMutability": "view",
      "type": "function"
    },
    {
      "inputs": [
        {
          "internalType": "address",
          "name": "recipient",
          "type": "address"
        },
        {
          "internalType": "uint256",
          "name": "amount",
          "type": "uint256"
        }
      ],
      "name": "transfer",
      "outputs": [
        {
          "internalType": "bool",
          "name": "",
          "type": "bool"
        }
      ],
      "stateMutability": "nonpayable",
      "type": "function"
    },
    {
      "inputs": [
        {
          "internalType": "address",
          "name": "sender",
          "type": "address"
        },
        {
          "internalType": "address",
          "name": "recipient",
          "type": "address"
        },
        {
          "internalType": "uint256",
          "name": "amount",
          "type": "uint256"
        }
      ],
      "name": "transferFrom",
      "outputs": [
        {
          "internalType": "bool",
          "name": "",
          "type": "bool"
        }
      ],
      "stateMutability": "nonpayable",
      "type": "function"
    },
    {
      "inputs": [
        {
          "internalType": "address",
          "name": "to",
          "type": "address"
        },
        {
          "internalType": "uint256",
          "name": "amount",
          "type": "uint256"
        }
      ],
      "name": "mint",
      "outputs": [],
      "stateMutability": "nonpayable",
      "type": "function"
    },
    {
      "inputs": [],
      "name": "pause",
      "outputs": [],
      "stateMutability": "nonpayable",
      "type": "function"
    },
    {
      "inputs": [],
      "name": "unpause",
      "outputs": [],
      "stateMutability": "nonpayable",
      "type": "function"
    }
  ],
  "bytecode": "0x60806040523480156200001157600080fd5b506040516200257438038062002574833981810160405260408110156200003757600080fd5b81019080805160405193929190846401000000008211156200005857600080fd5b838201915060208201858111156200006f57600080fd5b82518660018202830111640100000000821117156200008d57600080fd5b8083526020830192505050908051906020019080838360005b83811015620000c3578082015181840152602081019050620000a6565b50505050905090810190601f168015620000f15780820380516001836020036101000a031916815260200191505b50604052602001805160405193929190846401000000008211156200011557600080fd5b838201915060208201858111156200012c57600080fd5b82518660018202830111640100000000821117156200014a57600080fd5b8083526020830192505050908051906020019080838360005b838110156200018057808201518184015260208101905062000163565b50505050905090810190601f168015620001ae5780820380516001836020036101000a031916815260200191505b5060405250505081818160049080519060200190620001cf92919062000445565b508060059080519060200190620001e892919062000445565b506012600660006101000a81548160ff021916908360ff16021790555050506000600660016101000a81548160ff021916908315150217905550620002466000801b6200023a620002d660201b60201c565b620002de60201b60201c565b6200028a60405180806a4d494e5445525f524f4c4560a81b815250600b01905060405180910390206200027e620002d660201b60201c565b620002de60201b60201c565b620002ce60405180806a5041555345525f524f4c4560a81b815250600b0190506040518091039020620002c2620002d660201b60201c565b620002de60201b60201c565b5050620004f4565b600033905090565b620002f08282620002f460201b60201c565b5050565b62000322816000808581526020019081526020016000206000016200037d60201b620010c81790919060201c565b15620003795762000338620002d660201b60201c565b6001600160a01b0316816001600160a01b0316837f2f8788117e7eff1d82e926ec794901d17c78024a50270940304540a733656f0d60405160405180910390a45b5050565b6000620003a083600001836001600160a01b031660001b620003a860201b60201c565b905092915050565b6000620003bc83836200042260201b60201c565b620004175782600001829080600181540180825580915050600190039060005260206000200160009091909190915055826000018054905083600101600084815260200190815260200160002081905550600190506200041c565b600090505b92915050565b600080836001016000848152602001908152602001600020541415905092915050565b828054600181600116156101000203166002900490600052602060002090601f016020900481019282601f106200048857805160ff1916838001178555620004b9565b82800160010185558215620004b9579182015b82811115620004b85782518255916020019190600101906200049b565b5b509050620004c89190620004cc565b5090565b620004f191905b80821115620004ed576000816000905550600101620004d3565b5090565b90565b61207080620005046000396000f3fe608060405234801561001057600080fd5b50600436106101a95760003560e01c806370a08231116100f9578063a457c2d711610097578063d539139311610071578063d5391393146107d2578063d547741f146107f0578063dd62ed3e14610831578063e63ab1e91461088f576101a9565b8063a457c2d7146106de578063a9059cbb14610737578063ca15c87314610790576101a9565b80639010d07c116100d35780639010d07c1461058657806391d14854146105e457806395d89b411461063d578063a217fddf146106c0576101a9565b806370a08231146104f057806379cc67901461053b5780638456cb591461057c576101a9565b8063313ce567116101665780633f4ba83a116101405780633f4ba83a1461045557806340c10f191461045f57806342966c68146104a05780635c975abb146104ce576101a9565b8063313ce5671461039757806336568abe146103bb57806339509351146103fc576101a9565b806306fdde03146101ae578063095ea7b31461023157806318160ddd1461028a57806323b872dd146102a8578063248a9ca3146103145780632f2ff15d14610356575b600080fd5b6101b66108ad565b6040518080602001828103825283818151815260200191508051906020019080838360005b838110156101f65780820151818401526020810190506101db565b50505050905090810190601f1680156102235780820380516001836020036101000a031916815260200191505b509250505060405180910390f35b6102706004803603604081101561024757600080fd5b8101908080356001600160a01b031690602001909291908035906020019092919050505061094f565b604051808215151515815260200191505060405180910390f35b61029261096d565b6040518082815260200191505060405180910390f35b6102fa600480360360608110156102be57600080fd5b8101908080356001600160a01b0316906020019092919080356001600160a01b0316906020019092919080359060200190929190505050610977565b604051808215151515815260200191505060405180910390f35b6103406004803603602081101561032a57600080fd5b8101908080359060200190929190505050610a1c565b6040518082815260200191505060405180910390f35b6103956004803603604081101561036c57600080fd5b810190808035906020019092919080356001600160a01b03169060200190929190505050610a3b565b005b61039f610aaa565b604051808260ff1660ff16815260200191505060405180910390f35b6103fa600480360360408110156103d157600080fd5b810190808035906020019092919080356001600160a01b03169060200190929190505050610ac1565b005b61043b6004803603604081101561041257600080fd5b8101908080356001600160a01b0316906020019092919080359060200190929190505050610b26565b604051808215151515815260200191505060405180910390f35b61045d610ba5565b005b61049e6004803603604081101561047557600080fd5b8101908080356001600160a01b0316906020019092919080359060200190929190505050610c1e565b005b6104cc600480360360208110156104b657600080fd5b8101908080359060200190929190505050610c9b565b005b6104d6610caf565b604051808215151515815260200191505060405180910390f35b6105256004803603602081101561050657600080fd5b8101908080356001600160a01b03169060200190929190505050610cc6565b6040518082815260200191505060405180910390f35b61057a6004803603604081101561055157600080fd5b8101908080356001600160a01b0316906020019092919080359060200190929190505050610cf5565b005b610584610d57565b005b6105bc6004803603604081101561059c57600080fd5b810190808035906020019092919080359060200190929190505050610dd0565b60405180826001600160a01b03166001600160a01b0316815260200191505060405180910390f35b610623600480360360408110156105fa57600080fd5b810190808035906020019092919080356001600160a01b03169060200190929190505050610e01565b604051808215151515815260200191505060405180910390f35b610645610e32565b6040518080602001828103825283818151815260200191508051906020019080838360005b8381101561068557808201518184015260208101905061066a565b50505050905090810190601f1680156106b25780820380516001836020036101000a031916815260200191505b509250505060405180910390f35b6106c8610ed4565b6040518082815260200191505060405180910390f35b61071d600480360360408110156106f457600080fd5b8101908080356001600160a01b0316906020019092919080359060200190929190505050610edb565b604051808215151515815260200191505060405180910390f35b6107766004803603604081101561074d57600080fd5b8101908080356001600160a01b0316906020019092919080359060200190929190505050610f74565b604051808215151515815260200191505060405180910390f35b6107bc600480360360208110156107a657600080fd5b8101908080359060200190929190505050610f92565b6040518082815260200191505060405180910390f35b6107da610fb8565b6040518082815260200191505060405180910390f35b61082f6004803603604081101561080657600080fd5b810190808035906020019092919080356001600160a01b03169060200190929190505050610fdf565b005b6108796004803603604081101561084757600080fd5b8101908080356001600160a01b0316906020019092919080356001600160a01b0316906020019092919050505061104e565b6040518082815260200191505060405180910390f35b6108976110a1565b6040518082815260200191505060405180910390f35b606060048054600181600116156101000203166002900480601f0160208091040260200160405190810160405280929190818152602001828054600181600116156101000203166002900480156109455780601f1061091a57610100808354040283529160200191610945565b820191906000526020600020905b81548152906001019060200180831161092857829003601f168201915b5050505050905090565b600061096361095c6110eb565b84846110f3565b6001905092915050565b6000600354905090565b6000610984848484611234565b610a11846109906110eb565b610a0c85604051806060016040528060288152602001611e9a60289139600260008b6001600160a01b03166001600160a01b0316815260200190815260200160002060006109dc6110eb565b6001600160a01b03166001600160a01b031681526020019081526020016000205461140f9092919063ffffffff16565b6110f3565b600190509392505050565b6000806000838152602001908152602001600020600201549050919050565b610a6160008084815260200190815260200160002060020154610a5c6110eb565b610e01565b610a9c5760405162461bcd60e51b815260040180806020018281038252602f815260200180611d98602f913960400191505060405180910390fd5b610aa682826114b5565b5050565b6000600660009054906101000a900460ff16905090565b610ac96110eb565b6001600160a01b0316816001600160a01b031614610b185760405162461bcd60e51b815260040180806020018281038252602f815260200180611fe2602f913960400191505060405180910390fd5b610b22828261152e565b5050565b6000610b9b610b336110eb565b84610b968560026000610b446110eb565b6001600160a01b03166001600160a01b031681526020019081526020016000206000896001600160a01b03166001600160a01b03168152602001908152602001600020546115a790919063ffffffff16565b6110f3565b6001905092915050565b610bd960405180806a5041555345525f524f4c4560a81b815250600b0190506040518091039020610bd46110eb565b610e01565b610c145760405162461bcd60e51b8152600401808060200182810382526039815260200180611de96039913960400191505060405180910390fd5b610c1c611615565b565b610c5260405180806a4d494e5445525f524f4c4560a81b815250600b0190506040518091039020610c4d6110eb565b610e01565b610c8d5760405162461bcd60e51b8152600401808060200182810382526036815260200180611ec26036913960400191505060405180910390fd5b610c9782826116e1565b5050565b610cac610ca66110eb565b82611828565b50565b6000600660019054906101000a900460ff16905090565b600060016000836001600160a01b03166001600160a01b03168152602001908152602001600020549050919050565b6000610d3482604051806060016040528060248152602001611ef860249139610d2586610d206110eb565b61104e565b61140f9092919063ffffffff16565b9050610d4883610d426110eb565b836110f3565b610d528383611828565b505050565b610d8b60405180806a5041555345525f524f4c4560a81b815250600b0190506040518091039020610d866110eb565b610e01565b610dc65760405162461bcd60e51b8152600401808060200182810382526037815260200180611f866037913960400191505060405180910390fd5b610dce61196c565b565b6000610df982600080868152602001908152602001600020600001611a3590919063ffffffff16565b905092915050565b6000610e2a82600080868152602001908152602001600020600001611a4f90919063ffffffff16565b905092915050565b606060058054600181600116156101000203166002900480601f016020809104026020016040519081016040528092919081815260200182805460018160011615610100020316600290048015610eca5780601f10610e9f57610100808354040283529160200191610eca565b820191906000526020600020905b815481529060010190602001808311610ead57829003601f168201915b5050505050905090565b6000801b81565b6000610f6a610ee86110eb565b84610f6585604051806060016040528060258152602001611fbd6025913960026000610f126110eb565b6001600160a01b03166001600160a01b0316815260200190815260200160002060008a6001600160a01b03166001600160a01b031681526020019081526020016000205461140f9092919063ffffffff16565b6110f3565b6001905092915050565b6000610f88610f816110eb565b8484611234565b6001905092915050565b6000610fb1600080848152602001908152602001600020600001611a72565b9050919050565b60405180806a4d494e5445525f524f4c4560a81b815250600b019050604051809103902081565b611005600080848152602001908152602001600020600201546110006110eb565b610e01565b6110405760405162461bcd60e51b8152600401808060200182810382526030815260200180611e6a6030913960400191505060405180910390fd5b61104a828261152e565b5050565b600060026000846001600160a01b03166001600160a01b031681526020019081526020016000206000836001600160a01b03166001600160a01b0316815260200190815260200160002054905092915050565b60405180806a5041555345525f524f4c4560a81b815250600b019050604051809103902081565b60006110e383600001836001600160a01b031660001b611a87565b905092915050565b600033905090565b60006001600160a01b0316836001600160a01b031614156111455760405162461bcd60e51b8152600401808060200182810382526024815260200180611f626024913960400191505060405180910390fd5b60006001600160a01b0316826001600160a01b031614156111975760405162461bcd60e51b8152600401808060200182810382526022815260200180611e226022913960400191505060405180910390fd5b8060026000856001600160a01b03166001600160a01b031681526020019081526020016000206000846001600160a01b03166001600160a01b0316815260200190815260200160002081905550816001600160a01b0316836001600160a01b03167f8c5be1e5ebec7d5bd14f71427d1e84f3dd0314c0f7b2291e5b200ac8c7c3b925836040518082815260200191505060405180910390a3505050565b60006001600160a01b0316836001600160a01b031614156112865760405162461bcd60e51b8152600401808060200182810382526025815260200180611f3d6025913960400191505060405180910390fd5b60006001600160a01b0316826001600160a01b031614156112d85760405162461bcd60e51b8152600401808060200182810382526023815260200180611d756023913960400191505060405180910390fd5b6112e3838383611af7565b61133581604051806060016040528060268152602001611e446026913960016000876001600160a01b03166001600160a01b031681526020019081526020016000205461140f9092919063ffffffff16565b60016000856001600160a01b03166001600160a01b03168152602001908152602001600020819055506113968160016000856001600160a01b03166001600160a01b03168152602001908152602001600020546115a790919063ffffffff16565b60016000846001600160a01b03166001600160a01b0316815260200190815260200160002081905550816001600160a01b0316836001600160a01b03167fddf252ad1be2c89b69c2b068fc378daa952ba7f163c4a11628f55a4df523b3ef836040518082815260200191505060405180910390a3505050565b60008383111582906114a25760405162461bcd60e51b81526004018080602001828103825283818151815260200191508051906020019080838360005b8381101561146757808201518184015260208101905061144c565b50505050905090810190601f1680156114945780820380516001836020036101000a031916815260200191505b509250505060405180910390fd5b5060008385039050809150509392505050565b6114dc816000808581526020019081526020016000206000016110c890919063ffffffff16565b1561152a576114e96110eb565b6001600160a01b0316816001600160a01b0316837f2f8788117e7eff1d82e926ec794901d17c78024a50270940304540a733656f0d60405160405180910390a45b5050565b61155581600080858152602001908152602001600020600001611b0790919063ffffffff16565b156115a3576115626110eb565b6001600160a01b0316816001600160a01b0316837ff6391f5c32d9c69d2a47ea670b442974b53935d1edc7fd64eb21e047a839171b60405160405180910390a45b5050565b60008082840190508381101561160b5760405162461bcd60e51b815260040180806020018281038252601b8152602001807f536166654d6174683a206164646974696f6e206f766572666c6f77000000000081525060200191505060405180910390fd5b8091505092915050565b600660019054906101000a900460ff166116745760405162461bcd60e51b81526004018080602001828103825260148152602001807314185d5cd8589b194e881b9bdd081c185d5cd95960621b81525060200191505060405180910390fd5b6000600660016101000a81548160ff0219169083151502179055507f5db9ee0a495bf2e6ff9c91a7834c1ba4fdd244a5e8aa4e537bd38aeae4b073aa6116b86110eb565b60405180826001600160a01b03166001600160a01b0316815260200191505060405180910390a1565b60006001600160a01b0316826001600160a01b031614156117505760405162461bcd60e51b815260040180806020018281038252601f8152602001807f45524332303a206d696e7420746f20746865207a65726f20616464726573730081525060200191505060405180910390fd5b61175c60008383611af7565b611771816003546115a790919063ffffffff16565b6003819055506117af8160016000856001600160a01b03166001600160a01b03168152602001908152602001600020546115a790919063ffffffff16565b60016000846001600160a01b03166001600160a01b0316815260200190815260200160002081905550816001600160a01b031660006001600160a01b03167fddf252ad1be2c89b69c2b068fc378daa952ba7f163c4a11628f55a4df523b3ef836040518082815260200191505060405180910390a35050565b60006001600160a01b0316826001600160a01b0316141561187a5760405162461bcd60e51b8152600401808060200182810382526021815260200180611f1c6021913960400191505060405180910390fd5b61188682600083611af7565b6118d881604051806060016040528060228152602001611dc76022913960016000866001600160a01b03166001600160a01b031681526020019081526020016000205461140f9092919063ffffffff16565b60016000846001600160a01b03166001600160a01b031681526020019081526020016000208190555061191681600354611b2a90919063ffffffff16565b60038190555060006001600160a01b0316826001600160a01b03167fddf252ad1be2c89b69c2b068fc378daa952ba7f163c4a11628f55a4df523b3ef836040518082815260200191505060405180910390a35050565b600660019054906101000a900460ff16156119c85760405162461bcd60e51b81526004018080602001828103825260108152602001806f14185d5cd8589b194e881c185d5cd95960821b81525060200191505060405180910390fd5b6001600660016101000a81548160ff0219169083151502179055507f62e78cea01bee320cd4e420270b5ea74000d11b0c9f74754ebdbfc544b05a258611a0c6110eb565b60405180826001600160a01b03166001600160a01b0316815260200191505060405180910390a1565b6000611a448360000183611b74565b60001c905092915050565b6000611a6a83600001836001600160a01b031660001b611bdd565b905092915050565b6000611a8082600001611c00565b9050919050565b6000611a938383611bdd565b611aec578260000182908060018154018082558091505060019003906000526020600020016000909190919091505582600001805490508360010160008481526020019081526020016000208190555060019050611af1565b600090505b92915050565b611b02838383611c11565b505050565b6000611b2283600001836001600160a01b031660001b611c65565b905092915050565b6000611b6c83836040518060400160405280601e81526020017f536166654d6174683a207375627472616374696f6e206f766572666c6f77000081525061140f565b905092915050565b600081836000018054905011611bbb5760405162461bcd60e51b8152600401808060200182810382526022815260200180611d536022913960400191505060405180910390fd5b826000018281548110611bca57fe5b9060005260206000200154905092915050565b600080836001016000848152602001908152602001600020541415905092915050565b600081600001805490509050919050565b611c1c838383611d4d565b611c24610caf565b15611c605760405162461bcd60e51b815260040180806020018281038252602a815260200180612011602a913960400191505060405180910390fd5b505050565b60008083600101600084815260200190815260200160002054905060008114611d415760006001820390506000600186600001805490500390506000866000018281548110611cb057fe5b9060005260206000200154905080876000018481548110611ccd57fe5b9060005260206000200181905550600183018760010160008381526020019081526020016000208190555086600001805480611d0557fe5b60019003818190600052602060002001600090559055866001016000878152602001908152602001600020600090556001945050505050611d47565b60009150505b92915050565b50505056fe456e756d657261626c655365743a20696e646578206f7574206f6620626f756e647345524332303a207472616e7366657220746f20746865207a65726f2061646472657373416363657373436f6e74726f6c3a2073656e646572206d75737420626520616e2061646d696e20746f206772616e7445524332303a206275726e20616d6f756e7420657863656564732062616c616e636545524332305072657365744d696e7465725061757365723a206d75737420686176652070617573657220726f6c6520746f20756e706175736545524332303a20617070726f766520746f20746865207a65726f206164647265737345524332303a207472616e7366657220616d6f756e7420657863656564732062616c616e6365416363657373436f6e74726f6c3a2073656e646572206d75737420626520616e2061646d696e20746f207265766f6b6545524332303a207472616e7366657220616d6f756e74206578636565647320616c6c6f77616e636545524332305072657365744d696e7465725061757365723a206d7573742068617665206d696e74657220726f6c6520746f206d696e7445524332303a206275726e20616d6f756e74206578636565647320616c6c6f77616e636545524332303a206275726e2066726f6d20746865207a65726f206164647265737345524332303a207472616e736665722066726f6d20746865207a65726f206164647265737345524332303a20617070726f76652066726f6d20746865207a65726f206164647265737345524332305072657365744d696e7465725061757365723a206d75737420686176652070617573657220726f6c6520746f20706175736545524332303a2064656372656173656420616c6c6f77616e63652062656c6f77207a65726f416363657373436f6e74726f6c3a2063616e206f6e6c792072656e6f756e636520726f6c657320666f722073656c6645524332305061757361626c653a20746f6b656e207472616e73666572207768696c6520706175736564a2646970667358221220dccb060e1029726cf625ee5757cedbb36d92bf84d70179ae0cbb9ee33a208f2864736f6c634300060a0033",
  "immutableReferences": {},
  "source": "// SPDX-License-Identifier: MIT\n\npragma solidity ^0.6.0;\n\nimport \"../access/AccessControl.sol\";\nimport \"../GSN/Context.sol\";\nimport \"../token/ERC20/ERC20.sol\";\nimport \"../token/ERC20/ERC20Burnable.sol\";\nimport \"../token/ERC20/ERC20Pausable.sol\";\n\n/**\n * @dev {ERC20} token, including:\n *\n *  - ability for holders to burn (destroy) their tokens\n *  - a minter role that allows for token minting (creation)\n *  - a pauser role that allows to stop all token transfers\n *\n * This contract uses {AccessControl} to lock permissioned functions using the\n * different roles - head to its documentation for details.\n *\n * The account that deploys the contract will be granted the minter and pauser\n * roles, as well as the default admin role, which will let it grant both minter\n * and pauser roles to other accounts.\n */\ncontract ERC20PresetMinterPauser is Context, AccessControl, ERC20Burnable, ERC20Pausable {\n    bytes32 public constant MINTER_ROLE = keccak256(\"MINTER_ROLE\");\n    bytes32 public constant PAUSER_ROLE = keccak256(\"PAUSER_ROLE\");\n\n    /**\n     * @dev Grants `DEFAULT_ADMIN_ROLE`, `MINTER_ROLE` and `PAUSER_ROLE` to the\n     * account that deploys the contract.\n     *\n     * See {ERC20-constructor}.\n     */\n    constructor(string memory name, string memory symbol) public ERC20(name, symbol) {\n        _setupRole(DEFAULT_ADMIN_ROLE, _msgSender());\n\n        _setupRole(MINTER_ROLE, _msgSender());\n        _setupRole(PAUSER_ROLE, _msgSender());\n    }\n\n    /**\n     * @dev Creates `amount` new tokens for `to`.\n     *\n     * See {ERC20-_mint}.\n     *\n     * Requirements:\n     *\n     * - the caller must have the `MINTER_ROLE`.\n     */\n    function mint(address to, uint256 amount) public virtual {\n        require(hasRole(MINTER_ROLE, _msgSender()), \"ERC20PresetMinterPauser: must have minter role to mint\");\n        _mint(to, amount);\n    }\n\n    /**\n     * @dev Pauses all token transfers.\n     *\n     * See {ERC20Pausable} and {Pausable-_pause}.\n     *\n     * Requirements:\n     *\n     * - the caller must have the `PAUSER_ROLE`.\n     */\n    function pause() public virtual {\n        require(hasRole(PAUSER_ROLE, _msgSender()), \"ERC20PresetMinterPauser: must have pauser role to pause\");\n        _pause();\n    }\n\n    /**\n     * @dev Unpauses all token transfers.\n     *\n     * See {ERC20Pausable} and {Pausable-_unpause}.\n     *\n     * Requirements:\n     *\n     * - the caller must have the `PAUSER_ROLE`.\n     */\n    function unpause() public virtual {\n        require(hasRole(PAUSER_ROLE, _msgSender()), \"ERC20PresetMinterPauser: must have pauser role to unpause\");\n        _unpause();\n    }\n\n    function _beforeTokenTransfer(address from, address to, uint256 amount) internal virtual override(ERC20, ERC20Pausable) {\n        super._beforeTokenTransfer(from, to, amount);\n    }\n}\n",
  "sourcePath": "@openzeppelin/contracts/presets/ERC20PresetMinterPauser.sol",
  "compiler": {
    "name": "solc",
    "version": "0.6.10+commit.00c0fcaf.Emscripten.clang"
  },
  "schemaVersion": "3.3.2",
  "updatedAt": "2020-12-12T15:58:25.746Z",
  "devdoc": {
    "details": "{ERC20} token, including:  - ability for holders to burn (destroy) their tokens  - a minter role that allows for token minting (creation)  - a pauser role that allows to stop all token transfers This contract uses {AccessControl} to lock permissioned functions using the different roles - head to its documentation for details. The account that deploys the contract will be granted the minter and pauser roles, as well as the default admin role, which will let it grant both minter and pauser roles to other accounts.",
    "methods": {
      "allowance(address,address)": {
        "details": "See {IERC20-allowance}."
      },
      "approve(address,uint256)": {
        "details": "See {IERC20-approve}. Requirements: - `spender` cannot be the zero address."
      },
      "balanceOf(address)": {
        "details": "See {IERC20-balanceOf}."
      },
      "burn(uint256)": {
        "details": "Destroys `amount` tokens from the caller. See {ERC20-_burn}."
      },
      "burnFrom(address,uint256)": {
        "details": "Destroys `amount` tokens from `account`, deducting from the caller's allowance. See {ERC20-_burn} and {ERC20-allowance}. Requirements: - the caller must have allowance for ``accounts``'s tokens of at least `amount`."
      },
      "constructor": {
        "details": "Grants `DEFAULT_ADMIN_ROLE`, `MINTER_ROLE` and `PAUSER_ROLE` to the account that deploys the contract. See {ERC20-constructor}."
      },
      "decimals()": {
        "details": "Returns the number of decimals used to get its user representation. For example, if `decimals` equals `2`, a balance of `505` tokens should be displayed to a user as `5,05` (`505 / 10 ** 2`). Tokens usually opt for a value of 18, imitating the relationship between Ether and Wei. This is the value {ERC20} uses, unless {_setupDecimals} is called. NOTE: This information is only used for _display_ purposes: it in no way affects any of the arithmetic of the contract, including {IERC20-balanceOf} and {IERC20-transfer}."
      },
      "decreaseAllowance(address,uint256)": {
        "details": "Atomically decreases the allowance granted to `spender` by the caller. This is an alternative to {approve} that can be used as a mitigation for problems described in {IERC20-approve}. Emits an {Approval} event indicating the updated allowance. Requirements: - `spender` cannot be the zero address. - `spender` must have allowance for the caller of at least `subtractedValue`."
      },
      "getRoleAdmin(bytes32)": {
        "details": "Returns the admin role that controls `role`. See {grantRole} and {revokeRole}. To change a role's admin, use {_setRoleAdmin}."
      },
      "getRoleMember(bytes32,uint256)": {
        "details": "Returns one of the accounts that have `role`. `index` must be a value between 0 and {getRoleMemberCount}, non-inclusive. Role bearers are not sorted in any particular way, and their ordering may change at any point. WARNING: When using {getRoleMember} and {getRoleMemberCount}, make sure you perform all queries on the same block. See the following https://forum.openzeppelin.com/t/iterating-over-elements-on-enumerableset-in-openzeppelin-contracts/2296[forum post] for more information."
      },
      "getRoleMemberCount(bytes32)": {
        "details": "Returns the number of accounts that have `role`. Can be used together with {getRoleMember} to enumerate all bearers of a role."
      },
      "grantRole(bytes32,address)": {
        "details": "Grants `role` to `account`. If `account` had not been already granted `role`, emits a {RoleGranted} event. Requirements: - the caller must have ``role``'s admin role."
      },
      "hasRole(bytes32,address)": {
        "details": "Returns `true` if `account` has been granted `role`."
      },
      "increaseAllowance(address,uint256)": {
        "details": "Atomically increases the allowance granted to `spender` by the caller. This is an alternative to {approve} that can be used as a mitigation for problems described in {IERC20-approve}. Emits an {Approval} event indicating the updated allowance. Requirements: - `spender` cannot be the zero address."
      },
      "mint(address,uint256)": {
        "details": "Creates `amount` new tokens for `to`. See {ERC20-_mint}. Requirements: - the caller must have the `MINTER_ROLE`."
      },
      "name()": {
        "details": "Returns the name of the token."
      },
      "pause()": {
        "details": "Pauses all token transfers. See {ERC20Pausable} and {Pausable-_pause}. Requirements: - the caller must have the `PAUSER_ROLE`."
      },
      "paused()": {
        "details": "Returns true if the contract is paused, and false otherwise."
      },
      "renounceRole(bytes32,address)": {
        "details": "Revokes `role` from the calling account. Roles are often managed via {grantRole} and {revokeRole}: this function's purpose is to provide a mechanism for accounts to lose their privileges if they are compromised (such as when a trusted device is misplaced). If the calling account had been granted `role`, emits a {RoleRevoked} event. Requirements: - the caller must be `account`."
      },
      "revokeRole(bytes32,address)": {
        "details": "Revokes `role` from `account`. If `account` had been granted `role`, emits a {RoleRevoked} event. Requirements: - the caller must have ``role``'s admin role."
      },
      "symbol()": {
        "details": "Returns the symbol of the token, usually a shorter version of the name."
      },
      "totalSupply()": {
        "details": "See {IERC20-totalSupply}."
      },
      "transfer(address,uint256)": {
        "details": "See {IERC20-transfer}. Requirements: - `recipient` cannot be the zero address. - the caller must have a balance of at least `amount`."
      },
      "transferFrom(address,address,uint256)": {
        "details": "See {IERC20-transferFrom}. Emits an {Approval} event indicating the updated allowance. This is not required by the EIP. See the note at the beginning of {ERC20}; Requirements: - `sender` and `recipient` cannot be the zero address. - `sender` must have a balance of at least `amount`. - the caller must have allowance for ``sender``'s tokens of at least `amount`."
      },
      "unpause()": {
        "details": "Unpauses all token transfers. See {ERC20Pausable} and {Pausable-_unpause}. Requirements: - the caller must have the `PAUSER_ROLE`."
      }
    }
  },
  "userdoc": {
    "methods": {}
  }
}