{
  "contractName": "Agreement",
  "abi": [
    {
      "inputs": [],
      "stateMutability": "nonpayable",
      "type": "constructor"
    },
    {
      "anonymous": false,
      "inputs": [
        {
          "indexed": true,
          "internalType": "uint256",
          "name": "id",
          "type": "uint256"
        },
        {
          "indexed": false,
          "internalType": "bytes32",
          "name": "formTemplateId",
          "type": "bytes32"
        },
        {
          "indexed": true,
          "internalType": "address",
          "name": "partySource",
          "type": "address"
        },
        {
          "indexed": true,
          "internalType": "address",
          "name": "partyDestination",
          "type": "address"
        },
        {
          "indexed": false,
          "internalType": "string",
          "name": "agreementStoredReference",
          "type": "string"
        },
        {
          "indexed": false,
          "internalType": "uint256",
          "name": "status",
          "type": "uint256"
        }
      ],
      "name": "AgreementPartyCreated",
      "type": "event"
    },
    {
      "anonymous": false,
      "inputs": [
        {
          "indexed": true,
          "internalType": "address",
          "name": "previousOwner",
          "type": "address"
        },
        {
          "indexed": true,
          "internalType": "address",
          "name": "newOwner",
          "type": "address"
        }
      ],
      "name": "OwnershipTransferred",
      "type": "event"
    },
    {
      "inputs": [
        {
          "internalType": "address",
          "name": "",
          "type": "address"
        },
        {
          "internalType": "bytes32",
          "name": "",
          "type": "bytes32"
        }
      ],
      "name": "agreementForms",
      "outputs": [
        {
          "internalType": "bytes",
          "name": "",
          "type": "bytes"
        }
      ],
      "stateMutability": "view",
      "type": "function"
    },
    {
      "inputs": [
        {
          "internalType": "uint256",
          "name": "",
          "type": "uint256"
        }
      ],
      "name": "agreements",
      "outputs": [
        {
          "components": [
            {
              "internalType": "address",
              "name": "signatory",
              "type": "address"
            }
          ],
          "internalType": "struct AgreementModels.Party",
          "name": "fromSigner",
          "type": "tuple"
        },
        {
          "components": [
            {
              "internalType": "address",
              "name": "signatory",
              "type": "address"
            }
          ],
          "internalType": "struct AgreementModels.Party",
          "name": "toSigner",
          "type": "tuple"
        },
        {
          "internalType": "bool",
          "name": "escrowed",
          "type": "bool"
        },
        {
          "internalType": "uint256",
          "name": "validUntil",
          "type": "uint256"
        },
        {
          "internalType": "bytes",
          "name": "agreementForm",
          "type": "bytes"
        },
        {
          "internalType": "uint256",
          "name": "status",
          "type": "uint256"
        },
        {
          "components": [
            {
              "internalType": "string",
              "name": "multiaddressReference",
              "type": "string"
            },
            {
              "internalType": "bytes",
              "name": "digest",
              "type": "bytes"
            }
          ],
          "internalType": "struct AgreementModels.Content",
          "name": "file",
          "type": "tuple"
        }
      ],
      "stateMutability": "view",
      "type": "function"
    },
    {
      "inputs": [],
      "name": "owner",
      "outputs": [
        {
          "internalType": "address",
          "name": "",
          "type": "address"
        }
      ],
      "stateMutability": "view",
      "type": "function"
    },
    {
      "inputs": [],
      "name": "renounceOwnership",
      "outputs": [],
      "stateMutability": "nonpayable",
      "type": "function"
    },
    {
      "inputs": [
        {
          "internalType": "address",
          "name": "newOwner",
          "type": "address"
        }
      ],
      "name": "transferOwnership",
      "outputs": [],
      "stateMutability": "nonpayable",
      "type": "function"
    },
    {
      "inputs": [
        {
          "internalType": "uint256",
          "name": "validUntil",
          "type": "uint256"
        },
        {
          "internalType": "string",
          "name": "multiaddrReference",
          "type": "string"
        },
        {
          "internalType": "bytes32",
          "name": "agreementFormTemplateId",
          "type": "bytes32"
        },
        {
          "internalType": "bytes",
          "name": "agreementForm",
          "type": "bytes"
        },
        {
          "internalType": "bytes",
          "name": "digest",
          "type": "bytes"
        }
      ],
      "name": "partyCreate",
      "outputs": [
        {
          "internalType": "uint256",
          "name": "",
          "type": "uint256"
        }
      ],
      "stateMutability": "nonpayable",
      "type": "function"
    },
    {
      "inputs": [
        {
          "internalType": "uint256",
          "name": "agreementId",
          "type": "uint256"
        },
        {
          "internalType": "uint256",
          "name": "validUntil",
          "type": "uint256"
        },
        {
          "internalType": "string",
          "name": "multiaddrReference",
          "type": "string"
        },
        {
          "internalType": "bytes32",
          "name": "agreementFormTemplateId",
          "type": "bytes32"
        },
        {
          "internalType": "bytes",
          "name": "agreementForm",
          "type": "bytes"
        },
        {
          "internalType": "bytes",
          "name": "digest",
          "type": "bytes"
        }
      ],
      "name": "counterPartiesSign",
      "outputs": [
        {
          "internalType": "uint256",
          "name": "",
          "type": "uint256"
        }
      ],
      "stateMutability": "nonpayable",
      "type": "function"
    },
    {
      "inputs": [
        {
          "internalType": "bytes32",
          "name": "id",
          "type": "bytes32"
        },
        {
          "internalType": "bytes",
          "name": "content",
          "type": "bytes"
        }
      ],
      "name": "setAgreementTemplate",
      "outputs": [
        {
          "internalType": "bool",
          "name": "",
          "type": "bool"
        }
      ],
      "stateMutability": "nonpayable",
      "type": "function"
    },
    {
      "inputs": [
        {
          "internalType": "uint256",
          "name": "agreementId",
          "type": "uint256"
        },
        {
          "internalType": "bool",
          "name": "isCounterparty",
          "type": "bool"
        },
        {
          "internalType": "bytes32",
          "name": "formId",
          "type": "bytes32"
        }
      ],
      "name": "getFormById",
      "outputs": [
        {
          "internalType": "bytes",
          "name": "",
          "type": "bytes"
        }
      ],
      "stateMutability": "nonpayable",
      "type": "function"
    },
    {
      "inputs": [
        {
          "internalType": "uint256",
          "name": "id",
          "type": "uint256"
        }
      ],
      "name": "has",
      "outputs": [
        {
          "internalType": "bool",
          "name": "",
          "type": "bool"
        }
      ],
      "stateMutability": "view",
      "type": "function"
    },
    {
      "inputs": [
        {
          "internalType": "uint256",
          "name": "id",
          "type": "uint256"
        }
      ],
      "name": "get",
      "outputs": [
        {
          "components": [
            {
              "components": [
                {
                  "internalType": "address",
                  "name": "signatory",
                  "type": "address"
                }
              ],
              "internalType": "struct AgreementModels.Party",
              "name": "fromSigner",
              "type": "tuple"
            },
            {
              "components": [
                {
                  "internalType": "address",
                  "name": "signatory",
                  "type": "address"
                }
              ],
              "internalType": "struct AgreementModels.Party",
              "name": "toSigner",
              "type": "tuple"
            },
            {
              "internalType": "bool",
              "name": "escrowed",
              "type": "bool"
            },
            {
              "internalType": "uint256",
              "name": "validUntil",
              "type": "uint256"
            },
            {
              "internalType": "bytes",
              "name": "agreementForm",
              "type": "bytes"
            },
            {
              "internalType": "uint256",
              "name": "status",
              "type": "uint256"
            },
            {
              "components": [
                {
                  "internalType": "string",
                  "name": "multiaddressReference",
                  "type": "string"
                },
                {
                  "internalType": "bytes",
                  "name": "digest",
                  "type": "bytes"
                }
              ],
              "internalType": "struct AgreementModels.Content",
              "name": "file",
              "type": "tuple"
            }
          ],
          "internalType": "struct AgreementModels.AgreementDocument",
          "name": "",
          "type": "tuple"
        }
      ],
      "stateMutability": "nonpayable",
      "type": "function"
    }
  ],
  "bytecode": "0x608060405234801561001057600080fd5b50600061002161009060201b60201c565b9050806000806101000a8154816001600160a01b0302191690836001600160a01b03160217905550806001600160a01b031660006001600160a01b03167f8be0079c531659141344cd1fd0a4f28419497f9722a3daafe3b4186f6b6457e060405160405180910390a350610098565b600033905090565b61194d806100a76000396000f3fe608060405234801561001057600080fd5b50600436106100a95760003560e01c80638da5cb5b116100715780638da5cb5b146101785780639507d39a14610196578063bd14de96146101c6578063cccf7a8e146101fc578063f2fde38b1461022c578063fbcfee9414610248576100a9565b8063139b9765146100ae57806314d1cdb3146100de57806315b95b541461010e5780634b0f650f1461013e578063715018a61461016e575b600080fd5b6100c860048036038101906100c391906114dd565b610278565b6040516100d59190611740565b60405180910390f35b6100f860048036038101906100f39190611451565b6103ac565b6040516101059190611740565b60405180910390f35b6101286004803603810190610123919061147d565b610469565b6040516101359190611704565b60405180910390f35b610158600480360381019061015391906115b1565b61049d565b6040516101659190611906565b60405180910390f35b6101766107a7565b005b61018061087a565b60405161018d91906116eb565b60405180910390f35b6101b060048036038101906101ab91906114c2565b610896565b6040516101bd919061181a565b60405180910390f35b6101e060048036038101906101db91906114c2565b610bb2565b6040516101f397969594939291906118a4565b60405180910390f35b610216600480360381019061021191906114c2565b610e59565b6040516102239190611704565b60405180910390f35b6102466004803603810190610241919061142e565b610e7c565b005b610262600480360381019061025d9190611519565b610f8a565b60405161026f9190611906565b60405180910390f35b6060600115158315151480156102cb57506002600085815260200190815260200160002060010160000160009054906101000a90046001600160a01b03166001600160a01b0316336001600160a01b0316145b6102d457600080fd5b60036000336001600160a01b03166001600160a01b0316815260200190815260200160002060008381526020019081526020016000208054600181600116156101000203166002900480601f01602080910402602001604051908101604052809291908181526020018280546001816001161561010002031660029004801561039e5780601f106103735761010080835404028352916020019161039e565b820191906000526020600020905b81548152906001019060200180831161038157829003601f168201915b505050505090509392505050565b6003602052816000526040600020602052806000526040600020600091509150508054600181600116156101000203166002900480601f0160208091040260200160405190810160405280929190818152602001828054600181600116156101000203166002900480156104615780601f1061043657610100808354040283529160200191610461565b820191906000526020600020905b81548152906001019060200180831161044457829003601f168201915b505050505081565b6000816004600085815260200190815260200160002090805190602001906104929291906111e2565b506001905092915050565b60006104a7611262565b600260008981526020019081526020016000206040518060e0016040529081600082016040518060200160405290816000820160009054906101000a90046001600160a01b03166001600160a01b03166001600160a01b0316815250508152602001600182016040518060200160405290816000820160009054906101000a90046001600160a01b03166001600160a01b03166001600160a01b03168152505081526020016002820160009054906101000a900460ff1615151515815260200160038201548152602001600482018054600181600116156101000203166002900480601f0160208091040260200160405190810160405280929190818152602001828054600181600116156101000203166002900480156106095780601f106105de57610100808354040283529160200191610609565b820191906000526020600020905b8154815290600101906020018083116105ec57829003601f168201915b505050505081526020016005820154815260200160068201604051806040016040529081600082018054600181600116156101000203166002900480601f0160208091040260200160405190810160405280929190818152602001828054600181600116156101000203166002900480156106c55780601f1061069a576101008083540402835291602001916106c5565b820191906000526020600020905b8154815290600101906020018083116106a857829003601f168201915b50505050508152602001600182018054600181600116156101000203166002900480601f0160208091040260200160405190810160405280929190818152602001828054600181600116156101000203166002900480156107675780601f1061073c57610100808354040283529160200191610767565b820191906000526020600020905b81548152906001019060200180831161074a57829003601f168201915b50505050508152505081525050905061079a81600001516000015133898989896001600881111561079457fe5b8a610fb4565b9150509695505050505050565b6107af6111da565b6001600160a01b03166000809054906101000a90046001600160a01b03166001600160a01b0316146107fc5760405162461bcd60e51b81526004016107f3906117dd565b60405180910390fd5b60006001600160a01b03166000809054906101000a90046001600160a01b03166001600160a01b03167f8be0079c531659141344cd1fd0a4f28419497f9722a3daafe3b4186f6b6457e060405160405180910390a360008060006101000a8154816001600160a01b0302191690836001600160a01b03160217905550565b60008060009054906101000a90046001600160a01b0316905090565b61089e611262565b6000600260008481526020019081526020016000206003015414156108de5760405162461bcd60e51b81526004016108d5906117a8565b60405180910390fd5b600260008381526020019081526020016000206040518060e0016040529081600082016040518060200160405290816000820160009054906101000a90046001600160a01b03166001600160a01b03166001600160a01b0316815250508152602001600182016040518060200160405290816000820160009054906101000a90046001600160a01b03166001600160a01b03166001600160a01b03168152505081526020016002820160009054906101000a900460ff1615151515815260200160038201548152602001600482018054600181600116156101000203166002900480601f016020809104026020016040519081016040528092919081815260200182805460018160011615610100020316600290048015610a405780601f10610a1557610100808354040283529160200191610a40565b820191906000526020600020905b815481529060010190602001808311610a2357829003601f168201915b505050505081526020016005820154815260200160068201604051806040016040529081600082018054600181600116156101000203166002900480601f016020809104026020016040519081016040528092919081815260200182805460018160011615610100020316600290048015610afc5780601f10610ad157610100808354040283529160200191610afc565b820191906000526020600020905b815481529060010190602001808311610adf57829003601f168201915b50505050508152602001600182018054600181600116156101000203166002900480601f016020809104026020016040519081016040528092919081815260200182805460018160011615610100020316600290048015610b9e5780601f10610b7357610100808354040283529160200191610b9e565b820191906000526020600020905b815481529060010190602001808311610b8157829003601f168201915b505050505081525050815250509050919050565b6002602052806000526040600020600091509050806000016040518060200160405290816000820160009054906101000a90046001600160a01b03166001600160a01b03166001600160a01b03168152505090806001016040518060200160405290816000820160009054906101000a90046001600160a01b03166001600160a01b03166001600160a01b031681525050908060020160009054906101000a900460ff1690806003015490806004018054600181600116156101000203166002900480601f016020809104026020016040519081016040528092919081815260200182805460018160011615610100020316600290048015610cf55780601f10610cca57610100808354040283529160200191610cf5565b820191906000526020600020905b815481529060010190602001808311610cd857829003601f168201915b50505050509080600501549080600601604051806040016040529081600082018054600181600116156101000203166002900480601f016020809104026020016040519081016040528092919081815260200182805460018160011615610100020316600290048015610da95780601f10610d7e57610100808354040283529160200191610da9565b820191906000526020600020905b815481529060010190602001808311610d8c57829003601f168201915b50505050508152602001600182018054600181600116156101000203166002900480601f016020809104026020016040519081016040528092919081815260200182805460018160011615610100020316600290048015610e4b5780601f10610e2057610100808354040283529160200191610e4b565b820191906000526020600020905b815481529060010190602001808311610e2e57829003601f168201915b505050505081525050905087565b600080600260008481526020019081526020016000206003015414159050919050565b610e846111da565b6001600160a01b03166000809054906101000a90046001600160a01b03166001600160a01b031614610ed15760405162461bcd60e51b8152600401610ec8906117dd565b60405180910390fd5b60006001600160a01b0316816001600160a01b03161415610f0d5760405162461bcd60e51b8152600401610f049061175b565b60405180910390fd5b806001600160a01b03166000809054906101000a90046001600160a01b03166001600160a01b03167f8be0079c531659141344cd1fd0a4f28419497f9722a3daafe3b4186f6b6457e060405160405180910390a3806000806101000a8154816001600160a01b0302191690836001600160a01b0316021790555050565b6000610fa93360008888888860006008811115610fa357fe5b89610fb4565b905095945050505050565b60006001600081548092919060010191905055506040518060e0016040528060405180602001604052808c6001600160a01b0316815250815260200160405180602001604052808b6001600160a01b03168152508152602001600015158152602001600081526020018581526020016000600881111561103057fe5b815260200160405180604001604052808981526020018581525081525060026000600154815260200190815260200160002060008201518160000160008201518160000160006101000a8154816001600160a01b0302191690836001600160a01b03160217905550505060208201518160010160008201518160000160006101000a8154816001600160a01b0302191690836001600160a01b03160217905550505060408201518160020160006101000a81548160ff0219169083151502179055506060820151816003015560808201518160040190805190602001906111189291906111e2565b5060a0820151816005015560c08201518160060160008201518160000190805190602001906111489291906112b3565b5060208201518160010190805190602001906111659291906111e2565b505050905050876001600160a01b0316896001600160a01b03166001547f572166c66a909216d53b7f1ecb3a81fa1d3fd98454e886f4751cda1661a8d5ee888a600060088111156111b257fe5b6040516111c193929190611717565b60405180910390a4600154905098975050505050505050565b600033905090565b828054600181600116156101000203166002900490600052602060002090601f016020900481019282601f1061122357805160ff1916838001178555611251565b82800160010185558215611251579182015b82811115611250578251825591602001919060010190611235565b5b50905061125e9190611333565b5090565b6040518060e00160405280611275611358565b8152602001611282611358565b81526020016000151581526020016000815260200160608152602001600081526020016112ad611374565b81525090565b828054600181600116156101000203166002900490600052602060002090601f016020900481019282601f106112f457805160ff1916838001178555611322565b82800160010185558215611322579182015b82811115611321578251825591602001919060010190611306565b5b50905061132f9190611333565b5090565b61135591905b80821115611351576000816000905550600101611339565b5090565b90565b604051806020016040528060006001600160a01b031681525090565b604051806040016040528060608152602001606081525090565b60008135905060018060a01b03811681146113a857600080fd5b92915050565b600082601f8301126113be578081fd5b813567ffffffffffffffff808211156113d5578283fd5b6040516020601f19601f85011682010181811083821117156113f5578485fd5b806040525080935082815285602084870101111561141257600080fd5b8260208601602083013760006020848301015250505092915050565b60006020828403121561143f578081fd5b611449838361138e565b905092915050565b60008060408385031215611463578081fd5b61146d848461138e565b9150602083013590509250929050565b6000806040838503121561148f578182fd5b82359150602083013567ffffffffffffffff8111156114ac578182fd5b6114b8858286016113ae565b9150509250929050565b6000602082840312156114d3578081fd5b8135905092915050565b6000806000606084860312156114f1578081fd5b8335925060208401358015158114611507578182fd5b80925050604084013590509250925092565b600080600080600060a08688031215611530578081fd5b85359450602086013567ffffffffffffffff8082111561154e578283fd5b61155a89838a016113ae565b9550604088013594506060880135915080821115611576578283fd5b61158289838a016113ae565b93506080880135915080821115611597578283fd5b506115a4888289016113ae565b9150509295509295909350565b60008060008060008060c087890312156115c9578081fd5b8635955060208701359450604087013567ffffffffffffffff808211156115ee578283fd5b6115fa8a838b016113ae565b9550606089013594506080890135915080821115611616578283fd5b6116228a838b016113ae565b935060a0890135915080821115611637578283fd5b5061164489828a016113ae565b9150509295509295509295565b60018060a01b03811682525050565b60008151808452815b8181101561168b57602080828601015181838801015250602081019050611669565b8181111561169c5782602083870101525b506020601f19601f83011685010191505092915050565b60008151604084526116c86040850182611660565b6020840151915084810360208601526116e18183611660565b9250505092915050565b600060208201905060018060a01b038316825292915050565b6000602082019050821515825292915050565b6000848252606060208301526117306060830185611660565b9050826040830152949350505050565b6000602082526117536020830184611660565b905092915050565b600060208252602660208301527f4f776e61626c653a206e6577206f776e657220697320746865207a65726f206160408301526564647265737360d01b6060830152608082019050919050565b6000602082526014602083015273125b9d985b1a59081859dc99595b595b9d081a5960621b6040830152606082019050919050565b6000602082526020808301527f4f776e61626c653a2063616c6c6572206973206e6f7420746865206f776e65726040830152606082019050919050565b60006020825261182f60208301845151611651565b6020830151611842604084018251611651565b5060408301511515606083015260608301516080830152608083015160e060a0840152611873610100840182611660565b60a085015160c085015260c08501519150601f198482030160e085015261189a81836116b3565b9250505092915050565b600060018060a01b03808a5116835280895116602084015250861515604083015285606083015260e060808301526118df60e0830186611660565b8460a084015282810360c08401526118f781856116b3565b91505098975050505050505050565b60006020820190508282529291505056fea264697066735822122024d220b29c6f2a432f3e85f229d9f13f5c009c0a740c55a416dc82b3124a962264736f6c634300060a0033",
  "immutableReferences": {},
  "source": "pragma solidity ^0.6.10;\npragma experimental ABIEncoderV2;\n\nimport \"@openzeppelin/contracts/access/Ownable.sol\";\nimport \"./AgreementModels.sol\";\n\n//\n// @dev Contains agreements templates or documents created by user\n//\n// Create AgreementUtils\ncontract Agreement is Ownable, AgreementModels {\n    enum AgreementStatus {\n        PARTY_INIT,\n        COUNTERPARTY_SIGNED,\n        PUBLISHED,\n        DISPUTE_INIT,\n        DISPUTE_ACCEPTED,\n        DISPUTE_REJECTED,\n        VERDICT_PARTY_FOR,\n        VERDICT_PARTY_AGAINST,\n        ARBRITRATION\n    }\n\n    event AgreementPartyCreated(\n        uint256 indexed id,\n        bytes32 formTemplateId,\n        address indexed partySource,\n        address indexed partyDestination,\n        string agreementStoredReference,\n        uint status\n    );\n\n    uint256 private count;\n    // Agreement documents, which has references to decentralized storage and\n    // onchain metadata\n    mapping(uint256 => AgreementDocument) public agreements;\n    // user - plantilla - metadata\n    mapping(address => mapping(bytes32 => bytes)) public agreementForms;\n\n    // Agreement templates - preloaded from migration\n    mapping(bytes32 => bytes) agreementTemplates;\n\n    constructor() public {}\n\n    function partyCreate(\n        uint256 validUntil,\n        string memory multiaddrReference,\n        bytes32 agreementFormTemplateId,\n        bytes memory agreementForm,\n        bytes memory digest\n    )\n        public\n        returns (\n            uint256\n        )\n    {\n        return execute(\n            msg.sender,\n            address(0),\n            validUntil,\n            multiaddrReference,\n            agreementFormTemplateId,\n            agreementForm,\n            uint(AgreementStatus.PARTY_INIT),\n            digest\n        );\n    }\n\n    function counterPartiesSign(\n        uint agreementId,\n        uint256 validUntil,\n        string memory multiaddrReference,\n        bytes32 agreementFormTemplateId,\n        bytes memory agreementForm,\n        bytes memory digest\n    )\n        public\n        returns (\n            uint256\n        )\n    {\n        AgreementDocument memory doc = agreements[agreementId];\n        return execute(\n            doc.fromSigner.signatory,\n            msg.sender,\n            validUntil,\n            multiaddrReference,\n            agreementFormTemplateId,\n            agreementForm,\n            uint(AgreementStatus.COUNTERPARTY_SIGNED),\n            digest\n        );\n    }\n\n    // Creates an agreement document\n    // Contains a reference for content stored off chain\n    function execute(\n        address party,\n        address counterparty,\n        uint256 validUntil,\n        string memory multiaddrReference,\n        bytes32 agreementFormTemplateId,\n        bytes memory agreementForm,\n        uint status,\n        bytes memory digest\n    )\n        internal\n        returns (\n            uint256\n        )\n    {\n        count++;\n        agreements[count] = AgreementDocument({\n            fromSigner: Party({ signatory: party }),\n            toSigner: Party({ signatory: counterparty }),\n            escrowed: false,\n            validUntil: 0,\n            status: uint(AgreementStatus.PARTY_INIT),\n            agreementForm: agreementForm,\n            file: Content({\n                multiaddressReference: multiaddrReference,\n                digest: digest\n            })\n        });\n        //       (uint256 myNum, ,address a) = abi.decode(data, (uint256, bytes,address));\n        emit AgreementPartyCreated(\n            count,\n            agreementFormTemplateId,\n            party,\n            counterparty,\n            multiaddrReference,\n            uint(AgreementStatus.PARTY_INIT)\n        );\n        return count;\n    }\n\n    function setAgreementTemplate(bytes32 id, bytes memory content)\n        public\n        returns (bool)\n    {\n        // TODO: add requires\n        agreementTemplates[id] = content;\n        return true;\n    }\n\n\n    function getFormById(uint agreementId, bool isCounterparty, bytes32 formId) public returns (bytes memory) {\n        require(isCounterparty == true &&\n         msg.sender == agreements[agreementId].toSigner.signatory);\n\n        return agreementForms[msg.sender][formId];\n    }\n\n    function has(uint256 id) public view returns (bool) {\n        return agreements[id].validUntil != 0;\n    }\n\n    function get(uint256 id) public returns (AgreementDocument memory) {\n        require(agreements[id].validUntil != 0, \"Invalid agreement id\");\n        return agreements[id];\n    }\n}\n",
  "sourcePath": "/home/alfredolopez80/PAID/paid-contracts/contracts/Agreement.sol",
  "compiler": {
    "name": "solc",
    "version": "0.6.10+commit.00c0fcaf.Emscripten.clang"
  },
  "schemaVersion": "3.3.2",
  "updatedAt": "2020-11-26T20:23:17.708Z",
  "devdoc": {
    "methods": {
      "owner()": {
        "details": "Returns the address of the current owner."
      },
      "renounceOwnership()": {
        "details": "Leaves the contract without owner. It will not be possible to call `onlyOwner` functions anymore. Can only be called by the current owner. NOTE: Renouncing ownership will leave the contract without an owner, thereby removing any functionality that is only available to the owner."
      },
      "transferOwnership(address)": {
        "details": "Transfers ownership of the contract to a new account (`newOwner`). Can only be called by the current owner."
      }
    }
  },
  "userdoc": {
    "methods": {}
  }
}