{
  "contractName": "EscrowManager",
  "abi": [
    {
      "inputs": [],
      "stateMutability": "nonpayable",
      "type": "constructor"
    },
    {
      "inputs": [],
      "name": "withdraw",
      "outputs": [
        {
          "internalType": "bool",
          "name": "",
          "type": "bool"
        }
      ],
      "stateMutability": "nonpayable",
      "type": "function"
    },
    {
      "inputs": [],
      "name": "deposit",
      "outputs": [
        {
          "internalType": "bool",
          "name": "",
          "type": "bool"
        }
      ],
      "stateMutability": "view",
      "type": "function"
    },
    {
      "inputs": [],
      "name": "has",
      "outputs": [
        {
          "internalType": "bool",
          "name": "",
          "type": "bool"
        }
      ],
      "stateMutability": "nonpayable",
      "type": "function"
    }
  ],
  "bytecode": "0x608060405234801561001057600080fd5b5060f38061001f6000396000f3fe6080604052348015600f57600080fd5b5060043610603c5760003560e01c80633ccfd60b146041578063b689d5ac14605b578063d0e30db0146075575b600080fd5b6047608f565b6040516052919060aa565b60405180910390f35b60616098565b604051606c919060aa565b60405180910390f35b607b60a1565b6040516086919060aa565b60405180910390f35b60006001905090565b60006001905090565b60006001905090565b600060208201905082151582529291505056fea2646970667358221220af2b5666749cb425708e640acaa2d23d266a9036092fed8cf3776fe9aa46a17b64736f6c634300060a0033",
  "immutableReferences": {},
  "source": "pragma solidity ^0.6.10;\npragma experimental ABIEncoderV2;\n\nimport \"@openzeppelin/contracts/payment/escrow/Escrow.sol\";\n\ncontract EscrowManager {\n    mapping(bytes32 => Escrow) escrows;\n    constructor() \n    public {\n\n    } \n\n    function withdraw() public returns (bool) {\n        return true;\n    }\n\n    function deposit() public view returns(bool) {\n        return true;\n    }\n\n    function has() public returns (bool) {\n        return true;\n    }\n}",
  "sourcePath": "/home/alfredolopez80/PAID/paid-contracts/contracts/EscrowManager.sol",
  "compiler": {
    "name": "solc",
    "version": "0.6.10+commit.00c0fcaf.Emscripten.clang"
  },
  "schemaVersion": "3.3.2",
  "updatedAt": "2020-11-26T20:23:17.718Z",
  "devdoc": {
    "methods": {}
  },
  "userdoc": {
    "methods": {}
  }
}