{
  "contractName": "PAIDWorkflowFactory",
  "abi": [
    {
      "inputs": [
        {
          "internalType": "address",
          "name": "owner",
          "type": "address"
        }
      ],
      "name": "createWorkflow",
      "outputs": [
        {
          "internalType": "contract BaseWorkflow",
          "name": "",
          "type": "address"
        }
      ],
      "stateMutability": "nonpayable",
      "type": "function"
    }
  ],
  "bytecode": "0x608060405234801561001057600080fd5b5061158a806100206000396000f3fe608060405234801561001057600080fd5b506004361061002b5760003560e01c80639b7932d514610030575b600080fd5b6100726004803603602081101561004657600080fd5b81019080803573ffffffffffffffffffffffffffffffffffffffff1690602001909291905050506100b4565b604051808273ffffffffffffffffffffffffffffffffffffffff1673ffffffffffffffffffffffffffffffffffffffff16815260200191505060405180910390f35b600080826040516100c490610122565b808273ffffffffffffffffffffffffffffffffffffffff1673ffffffffffffffffffffffffffffffffffffffff168152602001915050604051809103906000f080158015610116573d6000803e3d6000fd5b50905080915050919050565b611425806101308339019056fe60806040523480156200001157600080fd5b506040516200142538038062001425833981810160405281019062000037919062000096565b80600460006101000a81548173ffffffffffffffffffffffffffffffffffffffff021916908373ffffffffffffffffffffffffffffffffffffffff1602179055505062000110565b6000815190506200009081620000f6565b92915050565b600060208284031215620000a957600080fd5b6000620000b9848285016200007f565b91505092915050565b6000620000cf82620000d6565b9050919050565b600073ffffffffffffffffffffffffffffffffffffffff82169050919050565b6200010181620000c2565b81146200010d57600080fd5b50565b61130580620001206000396000f3fe608060405234801561001057600080fd5b50600436106100b45760003560e01c806393b02d381161007157806393b02d38146101a35780639d9a7fe9146101d3578063a884b174146101f1578063bdf1e83614610221578063bfd8294d14610255578063daaf0d4514610273576100b4565b80632395dabb146100b95780633f9942ff146100d757806361461954146100f55780637cd3262b1461011357806387472ff7146101435780638d55e43b14610173575b600080fd5b6100c1610291565b6040516100ce9190610fd3565b60405180910390f35b6100df610299565b6040516100ec9190610fb8565b60405180910390f35b6100fd6102a2565b60405161010a9190610fb8565b60405180910390f35b61012d60048036038101906101289190610da6565b6102ab565b60405161013a9190610fd3565b60405180910390f35b61015d60048036038101906101589190610d6a565b6102d0565b60405161016a9190610fb8565b60405180910390f35b61018d60048036038101906101889190610bd7565b610348565b60405161019a9190610fd3565b60405180910390f35b6101bd60048036038101906101b89190610c96565b610520565b6040516101ca9190610fd3565b60405180910390f35b6101db610538565b6040516101e89190610fb8565b60405180910390f35b61020b60048036038101906102069190610cbf565b610541565b6040516102189190610f96565b60405180910390f35b61023b60048036038101906102369190610d6a565b6107bd565b60405161024c959493929190610fee565b60405180910390f35b61025d610820565b60405161026a9190610fd3565b60405180910390f35b61027b610826565b6040516102889190610fd3565b60405180910390f35b600080905090565b60006001905090565b60006001905090565b6002602052816000526040600020602052806000526040600020600091509150505481565b6000806001600085815260200190815260200160002060008481526020019081526020016000206002015414801561032f5750600060016000858152602001908152602001600020600084815260200190815260200160002060010154145b1561033d5760009050610342565b600190505b92915050565b60008033878760405160200161036093929190610f19565b6040516020818303038152906040528051906020012090506040518060a001604052803373ffffffffffffffffffffffffffffffffffffffff1681526020018873ffffffffffffffffffffffffffffffffffffffff168152602001868152602001858152602001848152506005600083815260200190815260200160002060008201518160000160006101000a81548173ffffffffffffffffffffffffffffffffffffffff021916908373ffffffffffffffffffffffffffffffffffffffff16021790555060208201518160010160006101000a81548173ffffffffffffffffffffffffffffffffffffffff021916908373ffffffffffffffffffffffffffffffffffffffff160217905550604082015181600201908051906020019061048892919061082e565b5060608201518160030190805190602001906104a592919061082e565b5060808201518160040190805190602001906104c292919061082e565b50905050826040516104d49190610f56565b6040518091039020817f69a63e554d623f2e8978c967d5374710b7216d75c09e03df2c8474a3424afc6c338a60405161050e929190610f6d565b60405180910390a35095945050505050565b60036020528060005260406000206000915090505481565b60006001905090565b606060008090505b8351811015610729576000600360008881526020019081526020016000205490506040518060a0016040528086848151811061058157fe5b602002602001015160000151815260200186848151811061059e57fe5b60200260200101516020015181526020018684815181106105bb57fe5b60200260200101516040015181526020018684815181106105d857fe5b60200260200101516060015181526020018684815181106105f557fe5b60200260200101516080015173ffffffffffffffffffffffffffffffffffffffff168152506001600089815260200190815260200160002060008381526020019081526020016000206000820151816000015560208201518160010155604082015181600201556060820151816003015560808201518160040160006101000a81548173ffffffffffffffffffffffffffffffffffffffff021916908373ffffffffffffffffffffffffffffffffffffffff1602179055509050506001600360008981526020019081526020016000205401600360008981526020019081526020016000208190555060008081548092919060010191905055508083600360008a8152602001908152602001600020548151811061070f57fe5b602002602001018181525050508080600101915050610549565b5060008090505b82518110156107b45782818151811061074557fe5b6020026020010151604001516002600085848151811061076157fe5b6020026020010151600001518152602001908152602001600020600085848151811061078957fe5b6020026020010151602001518152602001908152602001600020819055508080600101915050610730565b50949350505050565b6001602052816000526040600020602052806000526040600020600091509150508060000154908060010154908060020154908060030154908060040160009054906101000a900473ffffffffffffffffffffffffffffffffffffffff16905085565b60005481565b600080905090565b828054600181600116156101000203166002900490600052602060002090601f016020900481019282601f1061086f57805160ff191683800117855561089d565b8280016001018555821561089d579182015b8281111561089c578251825591602001919060010190610881565b5b5090506108aa91906108ae565b5090565b6108d091905b808211156108cc5760008160009055506001016108b4565b5090565b90565b6000813590506108e28161128a565b92915050565b600082601f8301126108f957600080fd5b813561090c6109078261106e565b611041565b9150818183526020840193506020810190508385606084028201111561093157600080fd5b60005b8381101561096157816109478882610ada565b845260208401935060608301925050600181019050610934565b5050505092915050565b600082601f83011261097c57600080fd5b813561098f61098a82611096565b611041565b915081818352602084019350602081019050838560a08402820111156109b457600080fd5b60005b838110156109e457816109ca8882610b3a565b845260208401935060a083019250506001810190506109b7565b5050505092915050565b600082601f8301126109ff57600080fd5b8135610a12610a0d826110be565b611041565b91508181835260208401935060208101905083856020840282011115610a3757600080fd5b60005b83811015610a675781610a4d8882610bc2565b845260208401935060208301925050600181019050610a3a565b5050505092915050565b600081359050610a80816112a1565b92915050565b600082601f830112610a9757600080fd5b8135610aaa610aa5826110e6565b611041565b91508082526020830160208301858383011115610ac657600080fd5b610ad18382846111fb565b50505092915050565b600060608284031215610aec57600080fd5b610af66060611041565b90506000610b0684828501610bc2565b6000830152506020610b1a84828501610bc2565b6020830152506040610b2e84828501610bc2565b60408301525092915050565b600060a08284031215610b4c57600080fd5b610b5660a0611041565b90506000610b6684828501610bc2565b6000830152506020610b7a84828501610bc2565b6020830152506040610b8e84828501610bc2565b6040830152506060610ba284828501610bc2565b6060830152506080610bb6848285016108d3565b60808301525092915050565b600081359050610bd1816112b8565b92915050565b600080600080600060a08688031215610bef57600080fd5b6000610bfd888289016108d3565b9550506020610c0e88828901610bc2565b945050604086013567ffffffffffffffff811115610c2b57600080fd5b610c3788828901610a86565b935050606086013567ffffffffffffffff811115610c5457600080fd5b610c6088828901610a86565b925050608086013567ffffffffffffffff811115610c7d57600080fd5b610c8988828901610a86565b9150509295509295909350565b600060208284031215610ca857600080fd5b6000610cb684828501610a71565b91505092915050565b60008060008060808587031215610cd557600080fd5b6000610ce387828801610a71565b945050602085013567ffffffffffffffff811115610d0057600080fd5b610d0c878288016109ee565b935050604085013567ffffffffffffffff811115610d2957600080fd5b610d358782880161096b565b925050606085013567ffffffffffffffff811115610d5257600080fd5b610d5e878288016108e8565b91505092959194509250565b60008060408385031215610d7d57600080fd5b6000610d8b85828601610a71565b9250506020610d9c85828601610bc2565b9150509250929050565b60008060408385031215610db957600080fd5b6000610dc785828601610bc2565b9250506020610dd885828601610bc2565b9150509250929050565b6000610dee8383610ee4565b60208301905092915050565b610e03816111c5565b82525050565b610e1a610e1582611173565b61124f565b82525050565b610e2981611161565b82525050565b610e40610e3b82611161565b61123d565b82525050565b6000610e5182611122565b610e5b8185611145565b9350610e6683611112565b8060005b83811015610e97578151610e7e8882610de2565b9750610e8983611138565b925050600181019050610e6a565b5085935050505092915050565b610ead81611185565b82525050565b6000610ebe8261112d565b610ec88185611156565b9350610ed881856020860161120a565b80840191505092915050565b610eed816111bb565b82525050565b610efc816111bb565b82525050565b610f13610f0e826111bb565b611273565b82525050565b6000610f258286610e09565b601482019150610f358285610e2f565b601482019150610f458284610f02565b602082019150819050949350505050565b6000610f628284610eb3565b915081905092915050565b6000604082019050610f826000830185610dfa565b610f8f6020830184610e20565b9392505050565b60006020820190508181036000830152610fb08184610e46565b905092915050565b6000602082019050610fcd6000830184610ea4565b92915050565b6000602082019050610fe86000830184610ef3565b92915050565b600060a0820190506110036000830188610ef3565b6110106020830187610ef3565b61101d6040830186610ef3565b61102a6060830185610ef3565b6110376080830184610e20565b9695505050505050565b6000604051905081810181811067ffffffffffffffff8211171561106457600080fd5b8060405250919050565b600067ffffffffffffffff82111561108557600080fd5b602082029050602081019050919050565b600067ffffffffffffffff8211156110ad57600080fd5b602082029050602081019050919050565b600067ffffffffffffffff8211156110d557600080fd5b602082029050602081019050919050565b600067ffffffffffffffff8211156110fd57600080fd5b601f19601f8301169050602081019050919050565b6000819050602082019050919050565b600081519050919050565b600081519050919050565b6000602082019050919050565b600082825260208201905092915050565b600081905092915050565b600061116c8261119b565b9050919050565b600061117e8261119b565b9050919050565b60008115159050919050565b6000819050919050565b600073ffffffffffffffffffffffffffffffffffffffff82169050919050565b6000819050919050565b60006111d0826111d7565b9050919050565b60006111e2826111e9565b9050919050565b60006111f48261119b565b9050919050565b82818337600083830152505050565b60005b8381101561122857808201518184015260208101905061120d565b83811115611237576000848401525b50505050565b600061124882611261565b9050919050565b600061125a82611261565b9050919050565b600061126c8261127d565b9050919050565b6000819050919050565b60008160601b9050919050565b61129381611161565b811461129e57600080fd5b50565b6112aa81611191565b81146112b557600080fd5b50565b6112c1816111bb565b81146112cc57600080fd5b5056fea26469706673582212204b110a57dd59ada64996096a8663e4459df8abcdaa4f09f516846541fa1bfe0e64736f6c634300060a0033a26469706673582212201c5e141ad6781c106f7df9570fcb97112bfeb526fa3c929f1738b2342088099c64736f6c634300060a0033",
  "immutableReferences": {},
  "source": "pragma solidity ^0.6.10;\n\nimport \"./workflow/BaseWorkflow.sol\";\nimport \"./PAIDWorkflow.sol\";\nimport \"./workflow/IWorkflowFactory.sol\";\n\ncontract PAIDWorkflowFactory is IWorkflowFactory {\n    function createWorkflow(address owner) \n    public override returns (BaseWorkflow) {\n        PAIDWorkflow instance = new PAIDWorkflow(owner);\n        return BaseWorkflow(instance);\n    }\n}",
  "sourcePath": "/home/alfredolopez80/PAID/paid-contracts/contracts/PAIDWorkflowFactory.sol",
  "compiler": {
    "name": "solc",
    "version": "0.6.10+commit.00c0fcaf.Emscripten.clang"
  },
  "schemaVersion": "3.3.2",
  "updatedAt": "2020-11-19T14:04:29.308Z",
  "devdoc": {
    "methods": {}
  },
  "userdoc": {
    "methods": {}
  }
}