{
  "contractName": "WorkflowRegistry",
  "abi": [
    {
      "inputs": [],
      "stateMutability": "nonpayable",
      "type": "constructor"
    },
    {
      "anonymous": false,
      "inputs": [
        {
          "indexed": true,
          "internalType": "uint256",
          "name": "id",
          "type": "uint256"
        }
      ],
      "name": "AgreementClosed",
      "type": "event"
    },
    {
      "anonymous": false,
      "inputs": [
        {
          "indexed": true,
          "internalType": "uint256",
          "name": "id",
          "type": "uint256"
        }
      ],
      "name": "AgreementCreated",
      "type": "event"
    },
    {
      "anonymous": false,
      "inputs": [
        {
          "indexed": true,
          "internalType": "uint256",
          "name": "id",
          "type": "uint256"
        }
      ],
      "name": "AgreementDisputed",
      "type": "event"
    },
    {
      "anonymous": false,
      "inputs": [
        {
          "indexed": true,
          "internalType": "uint256",
          "name": "id",
          "type": "uint256"
        }
      ],
      "name": "AgreementModified",
      "type": "event"
    },
    {
      "inputs": [
        {
          "internalType": "uint256",
          "name": "",
          "type": "uint256"
        }
      ],
      "name": "agreements",
      "outputs": [
        {
          "components": [
            {
              "internalType": "address",
              "name": "signatory",
              "type": "address"
            }
          ],
          "internalType": "struct AgreementModels.Party",
          "name": "fromSigner",
          "type": "tuple"
        },
        {
          "components": [
            {
              "internalType": "address",
              "name": "signatory",
              "type": "address"
            }
          ],
          "internalType": "struct AgreementModels.Party",
          "name": "toSigner",
          "type": "tuple"
        },
        {
          "internalType": "bool",
          "name": "escrowed",
          "type": "bool"
        },
        {
          "internalType": "uint256",
          "name": "validUntil",
          "type": "uint256"
        },
        {
          "internalType": "bytes",
          "name": "agreementForm",
          "type": "bytes"
        },
        {
          "internalType": "uint256",
          "name": "status",
          "type": "uint256"
        },
        {
          "components": [
            {
              "internalType": "string",
              "name": "multiaddressReference",
              "type": "string"
            },
            {
              "internalType": "bytes",
              "name": "digest",
              "type": "bytes"
            }
          ],
          "internalType": "struct AgreementModels.Content",
          "name": "file",
          "type": "tuple"
        }
      ],
      "stateMutability": "view",
      "type": "function"
    }
  ],
  "bytecode": "0x608060405234801561001057600080fd5b50610437806100206000396000f3fe608060405234801561001057600080fd5b506004361061002b5760003560e01c8063bd14de9614610030575b600080fd5b61004a6004803603810190610045919061030d565b610066565b60405161005d979695949392919061037b565b60405180910390f35b6001602052806000526040600020600091509050806000016040518060200160405290816000820160009054906101000a90046001600160a01b03166001600160a01b03166001600160a01b03168152505090806001016040518060200160405290816000820160009054906101000a90046001600160a01b03166001600160a01b03166001600160a01b031681525050908060020160009054906101000a900460ff1690806003015490806004018054600181600116156101000203166002900480601f0160208091040260200160405190810160405280929190818152602001828054600181600116156101000203166002900480156101a95780601f1061017e576101008083540402835291602001916101a9565b820191906000526020600020905b81548152906001019060200180831161018c57829003601f168201915b50505050509080600501549080600601604051806040016040529081600082018054600181600116156101000203166002900480601f01602080910402602001604051908101604052809291908181526020018280546001816001161561010002031660029004801561025d5780601f106102325761010080835404028352916020019161025d565b820191906000526020600020905b81548152906001019060200180831161024057829003601f168201915b50505050508152602001600182018054600181600116156101000203166002900480601f0160208091040260200160405190810160405280929190818152602001828054600181600116156101000203166002900480156102ff5780601f106102d4576101008083540402835291602001916102ff565b820191906000526020600020905b8154815290600101906020018083116102e257829003601f168201915b505050505081525050905087565b60006020828403121561031e578081fd5b8135905092915050565b60008151808452815b8181101561035357602080828601015181838801015250602081019050610331565b818111156103645782602083870101525b506020601f19601f83011685010191505092915050565b600060018060a01b03808a5116835280895116602084015250861515604083015285606083015260e060808301526103b660e0830186610328565b8460a084015282810360c08401528351604082526103d76040830182610328565b6020860151915082810360208401526103f08183610328565b93505050509897505050505050505056fea2646970667358221220549d1d502daa0f67761eb889dab717d7645094ce4d77c1c993110de02cd9a5ae64736f6c634300060a0033",
  "immutableReferences": {},
  "source": "pragma solidity ^0.6.10;\npragma experimental ABIEncoderV2;\n\nimport \"@openzeppelin/contracts/access/Ownable.sol\";\nimport \"./AgreementModels.sol\";\n// \n// @dev Contains agreements templates or documents created by user\n// \ncontract WorkflowRegistry is AgreementModels {\n    event AgreementCreated(uint256 indexed id);\n    event AgreementModified(uint256 indexed id);\n    event AgreementDisputed(uint256 indexed id);\n    event AgreementClosed(uint256 indexed id);\n\n    uint256 private count;\n    mapping (uint256 => AgreementDocument) public agreements;\n\n    constructor() public {\n    }\n\n    // // Registers a PAID workflow contract\n    // // With states and steps to execute\n    // // Add msg.sender as owner\n    // // Each step/status pair gets and id\n    // function createWorkflow(\n    //     address signatoryA,\n    //     address signatoryB,\n    //     uint validUntil,\n    //     string memory multiaddrReference,\n    //     bytes memory signature,\n    //     bytes memory digest\n    // ) \n    // public returns (uint) {\n    //     count++;\n    //     agreements[count] = AgreementDocument({\n    //         fromSigner: Party({ signatory: signatoryA }),\n    //         toSigner: Party({ signatory: signatoryB }),\n    //         signed: false,\n    //         escrowed: false,\n    //         validUntil: 0,\n    //         file: Content({\n    //             multiaddressReference: multiaddrReference,\n    //             signature: signature,\n    //             digest: digest\n    //         })\n            \n    //     });\n    //     return count;\n    // }\n}",
  "sourcePath": "/home/esfera-ubuntu/Documents/projects/paid-contracts/contracts/WorkflowRegistry.sol",
  "compiler": {
    "name": "solc",
    "version": "0.6.10+commit.00c0fcaf.Emscripten.clang"
  },
  "schemaVersion": "3.3.2",
  "updatedAt": "2020-12-12T15:58:25.735Z",
  "devdoc": {
    "methods": {}
  },
  "userdoc": {
    "methods": {}
  }
}