{
  "contractName": "WorkflowGateway",
  "abi": [
    {
      "inputs": [],
      "stateMutability": "nonpayable",
      "type": "constructor"
    },
    {
      "anonymous": false,
      "inputs": [
        {
          "indexed": true,
          "internalType": "uint256",
          "name": "id",
          "type": "uint256"
        }
      ],
      "name": "AgreementClosed",
      "type": "event"
    },
    {
      "anonymous": false,
      "inputs": [
        {
          "indexed": true,
          "internalType": "uint256",
          "name": "id",
          "type": "uint256"
        }
      ],
      "name": "AgreementCreated",
      "type": "event"
    },
    {
      "anonymous": false,
      "inputs": [
        {
          "indexed": true,
          "internalType": "uint256",
          "name": "id",
          "type": "uint256"
        }
      ],
      "name": "AgreementDisputed",
      "type": "event"
    },
    {
      "anonymous": false,
      "inputs": [
        {
          "indexed": true,
          "internalType": "uint256",
          "name": "id",
          "type": "uint256"
        }
      ],
      "name": "AgreementModified",
      "type": "event"
    },
    {
      "anonymous": false,
      "inputs": [
        {
          "indexed": true,
          "internalType": "address",
          "name": "recipient",
          "type": "address"
        },
        {
          "indexed": true,
          "internalType": "uint256",
          "name": "next",
          "type": "uint256"
        },
        {
          "indexed": true,
          "internalType": "uint256",
          "name": "actorId",
          "type": "uint256"
        },
        {
          "indexed": false,
          "internalType": "uint256",
          "name": "documentId",
          "type": "uint256"
        }
      ],
      "name": "WorkflowStepCompleted",
      "type": "event"
    },
    {
      "anonymous": false,
      "inputs": [
        {
          "indexed": true,
          "internalType": "address",
          "name": "sender",
          "type": "address"
        },
        {
          "indexed": true,
          "internalType": "uint256",
          "name": "current",
          "type": "uint256"
        },
        {
          "indexed": true,
          "internalType": "uint256",
          "name": "actorId",
          "type": "uint256"
        }
      ],
      "name": "WorkflowStepStart",
      "type": "event"
    },
    {
      "inputs": [
        {
          "internalType": "uint256",
          "name": "",
          "type": "uint256"
        }
      ],
      "name": "agreements",
      "outputs": [
        {
          "components": [
            {
              "internalType": "address",
              "name": "signatory",
              "type": "address"
            }
          ],
          "internalType": "struct AgreementModels.Party",
          "name": "fromSigner",
          "type": "tuple"
        },
        {
          "components": [
            {
              "internalType": "address",
              "name": "signatory",
              "type": "address"
            }
          ],
          "internalType": "struct AgreementModels.Party",
          "name": "toSigner",
          "type": "tuple"
        },
        {
          "internalType": "bool",
          "name": "escrowed",
          "type": "bool"
        },
        {
          "internalType": "uint256",
          "name": "validUntil",
          "type": "uint256"
        },
        {
          "internalType": "bytes",
          "name": "agreementForm",
          "type": "bytes"
        },
        {
          "internalType": "uint256",
          "name": "status",
          "type": "uint256"
        },
        {
          "components": [
            {
              "internalType": "string",
              "name": "multiaddressReference",
              "type": "string"
            },
            {
              "internalType": "bytes",
              "name": "digest",
              "type": "bytes"
            }
          ],
          "internalType": "struct AgreementModels.Content",
          "name": "file",
          "type": "tuple"
        }
      ],
      "stateMutability": "view",
      "type": "function"
    },
    {
      "inputs": [
        {
          "internalType": "uint256",
          "name": "id",
          "type": "uint256"
        },
        {
          "internalType": "uint256",
          "name": "stepId",
          "type": "uint256"
        }
      ],
      "name": "executeStep",
      "outputs": [
        {
          "internalType": "bool",
          "name": "",
          "type": "bool"
        }
      ],
      "stateMutability": "nonpayable",
      "type": "function"
    },
    {
      "inputs": [
        {
          "internalType": "address",
          "name": "user",
          "type": "address"
        },
        {
          "internalType": "address",
          "name": "agreementContract",
          "type": "address"
        }
      ],
      "name": "addUserToWhitelist",
      "outputs": [
        {
          "internalType": "bool",
          "name": "",
          "type": "bool"
        }
      ],
      "stateMutability": "nonpayable",
      "type": "function"
    },
    {
      "inputs": [
        {
          "internalType": "address",
          "name": "user",
          "type": "address"
        },
        {
          "internalType": "address",
          "name": "agreementContract",
          "type": "address"
        }
      ],
      "name": "removeUserFromWhitelist",
      "outputs": [
        {
          "internalType": "bool",
          "name": "",
          "type": "bool"
        }
      ],
      "stateMutability": "nonpayable",
      "type": "function"
    }
  ],
  "bytecode": "0x608060405234801561001057600080fd5b50610597806100206000396000f3fe608060405234801561001057600080fd5b506004361061004c5760003560e01c806318be19d2146100515780637aabb5c514610081578063abf8ba1b146100b1578063bd14de96146100e1575b600080fd5b61006b60048036038101906100669190610402565b610117565b60405161007891906104c8565b60405180910390f35b61009b60048036038101906100969190610451565b610123565b6040516100a891906104c8565b60405180910390f35b6100cb60048036038101906100c69190610402565b61012f565b6040516100d891906104c8565b60405180910390f35b6100fb60048036038101906100f69190610436565b61013b565b60405161010e97969594939291906104db565b60405180910390f35b60006001905092915050565b60006001905092915050565b60006001905092915050565b6001602052806000526040600020600091509050806000016040518060200160405290816000820160009054906101000a90046001600160a01b03166001600160a01b03166001600160a01b03168152505090806001016040518060200160405290816000820160009054906101000a90046001600160a01b03166001600160a01b03166001600160a01b031681525050908060020160009054906101000a900460ff1690806003015490806004018054600181600116156101000203166002900480601f01602080910402602001604051908101604052809291908181526020018280546001816001161561010002031660029004801561027e5780601f106102535761010080835404028352916020019161027e565b820191906000526020600020905b81548152906001019060200180831161026157829003601f168201915b50505050509080600501549080600601604051806040016040529081600082018054600181600116156101000203166002900480601f0160208091040260200160405190810160405280929190818152602001828054600181600116156101000203166002900480156103325780601f1061030757610100808354040283529160200191610332565b820191906000526020600020905b81548152906001019060200180831161031557829003601f168201915b50505050508152602001600182018054600181600116156101000203166002900480601f0160208091040260200160405190810160405280929190818152602001828054600181600116156101000203166002900480156103d45780601f106103a9576101008083540402835291602001916103d4565b820191906000526020600020905b8154815290600101906020018083116103b757829003601f168201915b505050505081525050905087565b60008135905060018060a01b03811681146103fc57600080fd5b92915050565b60008060408385031215610414578182fd5b61041e84846103e2565b915061042d84602085016103e2565b90509250929050565b600060208284031215610447578081fd5b8135905092915050565b60008060408385031215610463578182fd5b82359150602083013590509250929050565b60008151808452815b818110156104a05760208082860101518183880101525060208101905061047e565b818111156104b15782602083870101525b506020601f19601f83011685010191505092915050565b6000602082019050821515825292915050565b600060018060a01b03808a5116835280895116602084015250861515604083015285606083015260e0608083015261051660e0830186610475565b8460a084015282810360c08401528351604082526105376040830182610475565b6020860151915082810360208401526105508183610475565b93505050509897505050505050505056fea2646970667358221220deea1d41e52c2952732e81f0fffb1a3ec17b56e395f36e5a84b8defc19adc8c964736f6c634300060a0033",
  "immutableReferences": {},
  "source": "pragma solidity ^0.6.10;\npragma experimental ABIEncoderV2;\n\nimport \"@openzeppelin/contracts/access/Ownable.sol\";\nimport \"./AgreementModels.sol\";\nimport \"./WorkflowStep.sol\";\n// \n// @dev Controls and executes steps by whitelisted users\n// \ncontract WorkflowGateway is AgreementModels, WorkflowStep {\n    event AgreementCreated(uint256 indexed id);\n    event AgreementModified(uint256 indexed id);\n    event AgreementDisputed(uint256 indexed id);\n    event AgreementClosed(uint256 indexed id);\n\n    uint256 private count;\n    mapping (uint256 => AgreementDocument) public agreements;\n\n    constructor() public {\n    }\n\n\n    function executeStep(\n        uint id,\n        uint stepId\n    ) \n    public returns (bool) {\n        // Validates msg.sender\n        // Validates workflow exists in registry\n        // Validates steps exists in registry\n        // Executes steps\n        return true;\n    }\n    \n    function addUserToWhitelist(\n        address user,\n        address agreementContract\n    ) \n    public returns (bool) {\n        // Adds user to agreement contract\n        return true;\n    }\n\n    function removeUserFromWhitelist(\n        address user,\n        address agreementContract\n    ) \n    public returns (bool) {\n        // Removes user to agreement contract\n        return true;\n    }\n\n    \n\n}",
  "sourcePath": "/home/alfredolopez80/PAID/paid-contracts/contracts/WorkflowGateway.sol",
  "compiler": {
    "name": "solc",
    "version": "0.6.10+commit.00c0fcaf.Emscripten.clang"
  },
  "schemaVersion": "3.3.2",
  "updatedAt": "2020-11-26T20:23:17.723Z",
  "devdoc": {
    "methods": {}
  },
  "userdoc": {
    "methods": {}
  }
}